:020000024000BC
:100000006FC062520000000000180118002801288B
:100010000228032800290129022903290429052986
:10002000062907290829002A012A022A032A042A64
:10003000052AA62A58CD06006E1F0400D40200200F
:100040003E030020C00200208E0200201C0200207F
:10005000562104009E21040044230400D0250400FE
:10006000BC260400CC1D04008A1C04004C1D0400A6
:10007000DC1C0400AC2C0400CE0400202C21040065
:10008000782904001A6B0600126D06008A6D0600BE
:10009000A81B0600DC1B0600D26905007C5D05007C
:1000A000AA640600AE290400A026060096E3040018
:1000B00024E404007CE404004C350400983504007A
:1000C000023404008E9F0400489A04002CA9040006
:1000D000FCAC0400A8B00400648C0400028C040092
:1000E000EC8F0400B08C0400D88B04005C8C0400FE
:1000F0008A8B0400348D04008C8D04003C8D040038
:10010000408D0400DA8D0400948D0400C68D040037
:10011000E8920400F0920400308D0400388D040051
:10012000D88D0400EC920400888E04005E940400D4
:10013000F0BE04006EBF0400ACBF0400F2A10400D6
:100140000AA2040046A20400BC850400DA8604006A
:10015000508704004A540400F04E0400C67A04009C
:100160006E4F0400F2750400F8A8060042A10600D4
:100170002CA606005CBF060022BE0600A6C2060032
:100180005EC206009EC206004EC306000C8F06002B
:10019000DEC2060084B50600AAB50600D2B5060088
:1001A000BEC306001EBC0600D4BB06002EC406005B
:1001B000A8910600449206006C9206000E9206007A
:1001C000724806003C320600DC3506009A33060011
:1001D000243E06007A65060048640600408F06004B
:1001E0004A2E0400181D0600802606007827060007
:1001F000EC5A06007E5B0600325D0600F6A50400A0
:100200004A470600CC3E060002300600B041060018
:10021000EC310600DE060020041E0600CAC20600FD
:1002200062C206009AC2060096C206005C2504005F
:1002300044A30400D2C2060068490600364A0600FC
:10024000B04A060092A60600CEC20600D6C206003C
:10025000085D0500DAC2060016120020DC1100203D
:1002600072A6060018A80600184806000000000044
:10027000000000000000000000000000000000007E
:100280006373B60082801C419105110523AEF5FE13
:10029000C5BFB7270020372700209387879F130704
:1002A00007FC6373F700828023A007009107D5BF86
:1002B0004111B7E700E022C480433707200006C69B
:1002C000798C23A0E7180F10000011C199E5B7E75A
:1002D00000E023A08710014545A893073500C20719
:1002E000C183F19BC207C183130740036366F70212
:1002F00037270020032547B3372700208326C7B2BE
:100300006391A60237270020032747BC69D3C207A1
:10031000DD8D0545029765BF37270020032507B30C
:10032000E1BF035765002DE7035745006362F706F9
:10033000B72600203306F74021489386C6B363787A
:10034000C8028328050003D86600138687001D8F26
:100350002A9661172312E6002320160123130600B4
:1003600010C12312F500130788FF2393E60023131F
:10037000B50083D566002105B387F5402393F600C9
:10038000B7E700E023A08710B240224441018280F9
:100390000841BDB7B7E700E003A807003707200012
:1003A00023A0E7183378E8000F10000001E523A030
:1003B00007118280B727002003AE47B3B72700207C
:1003C00003A3C7B28146F28763FC670A83A80700CC
:1003D000636BF50A63E9A80A138787006362E50A7D
:1003E00003D66700216705076319E600372600205A
:1003F000034786A805072304E6A83726002013052F
:10040000C6B383D54700035765002393070013063F
:10041000C6B32E97420741832313E5006387C703C2
:1004200037250020032505B36301F50203D56600D7
:1004300009ED83D7460023A016012107BE95A1052B
:100440002392B6002313E600B6879843630A670237
:10045000B726002083A606B36304D702835667003D
:1004600085E283D64700835547001843A106AE9620
:100470002392D70098C383576600A1072313F60081
:10048000B7E700E02DB7BE86C6873DBFB7E700E0FF
:100490009843B706200023A0D718758F0F100000CF
:1004A00001C599C1814711E6B7E700E023A0E71035
:1004B0008280B386F50003C80600B306F500850701
:1004C00023800601E317F6FEC5B737E700E01C43BB
:1004D000B70620002320D718F58F0F10000019C190
:1004E00091C111E637E700E02320F71082809105E3
:1004F00003A7C5FF11057D16232EE5FEDDB737E7FF
:1005000000E01C43B70620002320D718F58F0F10FA
:10051000000001C53307C50011E637E700E02320DE
:10052000F71082800505A30FB5FEE31DE5FEF5B7C4
:1005300081473307F5000307070019E33E858280F2
:100540008507C5BF37E700E01C43B706200023201E
:10055000D718F58F0F10000001C599C1014711EAA6
:1005600037E700E02320F710054582800507E309FF
:10057000E6FE3308E500B386E5000348080083C6BD
:100580000600E305D8FE37E700E02320F710014519
:1005900082809307F6FFBE952A966313C50082807A
:1005A000FD1583C715000505A30FF5FEFDB7AA8746
:1005B000014581CF09CE3E96850703C7F7FF631734
:1005C000B700E39BC7FE054582808280014582809B
:1005D00079714AD03729002022D4032409B906D6DC
:1005E00026D24ECE52CC56CA5AC85EC662C45DC42C
:1005F000372A0020B7290020B7240020814BB72AD2
:10060000002037CBC901130A4AB99389C9B393842F
:1006100004BE8357240099EF5C44639A0B0023289F
:10062000F9B8032CC4002285B5336284A9A823A697
:10063000FB00C5BF83A78AB882971C443307F540E7
:100640006375F500D8401D8F2A979306FB3763EB3F
:10065000E60623A8090083552400034504009720DB
:1006600004E0E78080D65C405844A9C70C44D040E1
:10067000AE97BE8663E4B70063E4C700B386C740A5
:1006800014C4A28B3A8451F4B72700209387C7B3D0
:10069000984B894663FBE606791798CBB2502254F3
:1006A00092540259F249624AD24A424BB24B224C0E
:1006B0004561828063950B002328E9B89DB723A686
:1006C000EB0085B703274A021DCB63EDA7023385F4
:1006D000A7408347040091EF03477A01D44059179C
:1006E000B307A7003E8563E4E70063E4D7003385E2
:1006F000D74083A709016374F50023A8A900A28B42
:10070000404451B7D840BA97D9B723A8070079B762
:10071000B727002003A787BD411122C406C63E8427
:1007200011C30297B727002083C767B893F7F70F65
:1007300099E3232C04BCB240224441018280011180
:100740004EC6B729002083A789B606CE22CC26CA7A
:100750004AC852C456C281C7829723A409B6B72497
:100760000020938784EB83C75700372400209384AD
:1007700084EB858B130484B681CF83C7740019473B
:100780006316F70EA3820400EF0050765C44829754
:100790001C4491C3829737240020372900209307F7
:1007A000C4B30327C9B803C61700130AC4B38347E9
:1007B000C4B393961700BA9683D60600F9C283474E
:1007C000C4B363E8C70C83A789B6230E04B263944D
:1007D0000712B727002083A787B8638E0710B727B3
:1007E000002083A747BE2328FA00DD3383C7B40067
:1007F0006393071083C7940081CF83C7740093F776
:10080000F70F99E7A3840400972006E0E78060BC17
:10081000B727002083A787BBF9CF83270A01E1CF41
:1008200083C7740015476368F70CB72700209387C8
:1008300047F083C7C700918BDDEFB727002083C740
:1008400067B893F7F70FC5EB83461A000326C9B8BC
:1008500063CCD70A6244F240D2444249B249224AA8
:10086000924A0561172304E06700831483C774006C
:100870001D47E31FF7F0A3820400EF0030671C4818
:1008800039B7850793F7F70F230EF4B2E3E1C7F208
:100890003DB786073E9783550700231007000345A1
:1008A000C4B3B727002083A747B613172500B72A7C
:1008B0000020BA979C4323920AB8829783D74AB8FC
:1008C0000347C4B393C7F7FF7D8D93171700032722
:1008D000C9B83E97835707005D8D2310A700834753
:1008E000C4B381C78507230EF4B20347C4B383475B
:1008F0001A00E37AF7ECF2406244D2444249B2492A
:10090000224A924A05618280139717003297035753
:10091000070075F385072DBF37C700408326C72022
:10092000B707FCFFFD17F58F2326F7200100010014
:10093000B72700209387C7B3C84F8327872623266E
:10094000D7206A0593C7F7FF99835D8D8280B7270B
:10095000002003A347BF6303030002831305F00FC6
:10096000828003278511630207120346E50485464A
:10097000630E0610411122C406C68347C5002A84AF
:1009800093F7C70F2306F500834597000358C70068
:10099000139585016185637F060763580506034546
:1009A000870093F5F507A304B70093E527006314C8
:1009B000D50093E517002306B4005C4389075CC3A8
:1009C000A30AC400032504114C430905C13483273D
:1009D000841103465401D44303D7C700B296118F44
:1009E000D4C32396E7008947A30DF400B72700205E
:1009F0000347640383C767BA6377F7048347C40078
:100A000093E707012306F4003DA893E717002306A8
:100A1000F4007DB71376F80F635D05020345870088
:100A200093E527006314D50093E517002306B4006F
:100A3000A30AC400A30407008547A30DF40083277D
:100A400084119C43C5F7B24022448146368541015A
:100A5000828093E717002306F400A30AC400A304CE
:100A60000700032504114C434286090505348327FA
:100A7000841103465401D44303D7C700B296118FA3
:100A8000D4C32396E7008D474DBF854636858280C7
:100A9000B727002083A747E9411122C406C6858BEA
:100AA0002A84DDEB4165130525F5977005E0E780A5
:100AB000802B5DC18347A5002315F5008327041211
:100AC000B5E72320A4122322A41285472311F4049E
:100AD000232005008347640154412316F500034792
:100AE000D4002304E5000547A304E50037270020D0
:100AF0000327C7ED1385170215811C437D15137558
:100B0000F50F9CC25C43DCC21C479CC65C47DCC63C
:100B10001C4B9CCA5C4BDCCA1C4F9CCE5C4FDCCE91
:100B200019CD9386060213070702C1BF832744121B
:100B300088C3835724042322A412850741BFB72703
:100B40000020938787D603D7870005072394E70003
:100B5000B2402244410182808347C400230904003B
:100B6000054593C747002306F400DDB78347850199
:100B700093F7E70FDDEB83479501C5EB03462501AE
:100B80008346C50009CA372700208345650303470C
:100B900077BA63E7E50013F7060149CB014709C6B9
:100BA000C18A0357651C81C68356A51C36973DCF65
:100BB000B727002003D587BE1307C71237460F009B
:100BC000B335A702411113060624814622C426C26A
:100BD00006C67D543305A70297C006E0E780A0C58E
:100BE000B727002083C7B7BAB384A700B727002070
:100BF00003A707E08327070963F387003E841843B0
:100C000075FBB727002083A787B882978147636465
:100C1000A400B307A440B2402244B3B7970093C7DF
:100C2000170092443E854101828081473E85828043
:100C3000B727002003A707EE3C5BFDFF0100010082
:100C40008280011122CC4AC84EC606CE26CA52C4A2
:100C500056C25AC00347B50085472A842E89832986
:100C60000509631BF72483570508835AC503372AF0
:100C70000020130A0ABE63F75721834605016393D8
:100C8000E62003278511631F071E0327450A631B00
:100C9000071E8346F5001D476396E61E03471401B1
:100CA000B38AFA4013950A01418121CF9377170047
:100CB00099CB8357E40583560404958F63D5A70029
:100CC0001395070141819377270099CB8357E4124D
:100CD00083560404958F63D5A700139507014181BE
:100CE0009377070199CB8357C41483560404958FD7
:100CF00063D5A700139507014181218B11E311E111
:100D000005450357A4039307204E83244409330564
:100D1000A702035B8A0037460F00814613060624AC
:100D20003305F502B727002083C7A7BAB35495024D
:100D3000B335AB02BE94C204C180231394083305BB
:100D4000AB0297C006E0E78000AFB307350133B5CB
:100D5000A7002E953E8783264A0019E163E4D70059
:100D60003387D740B3846403B7460F009387F623D5
:100D7000938606242320E900A697B3D7D702D697F7
:100D8000636CF70E1D8F2320E900B729002083A78D
:100D900089B883240900829763E3A4123385A440B1
:100DA0006350050C83A789B8372B0020130B0BBEAB
:100DB000829703270900636AE510198D8357E403BE
:100DC00003578B008E07B387E70213070032938720
:100DD0000719B3D7E70263EFA70E374A0F00930A4C
:100DE000FA23130A0A248357040485072310F40402
:100DF0008347041499E32285AD2A2285976005E094
:100E0000E78060ED6DE5832604098327C408032786
:100E10004B00B6973E8563E4D70063E4E700338573
:100E2000E7408347F401835464082328A408850716
:100E3000A30FF40083578B00B384F402D694B3D489
:100E400044036365950CB304954083A789B82320B8
:100E50009900829763E0A40C3385A440E34505F82C
:100E6000B727002083C7B7BA63E4A708B7270020D5
:100E700023A487E00145ADA883264A00B387F64046
:100E80003E9711B783578A0003576408B7460F008F
:100E90003307F7029387F6233E9793870624B357C9
:100EA000F70263E7F900B387F9402320F900F1BDA9
:100EB00003274A00BA99C5BF23A03501F9B5B72762
:100EC000002083A747BEBE94D1BD83274B00998FD6
:100ED0003E95EDB5A1452285976005E0E780C0D835
:100EE000A305A402B727002083A747BC81EF7D5547
:100EF000F2406244D2444249B249224A924A024BE9
:100F000005618280894515458297D5B7B30497401E
:100F1000AA9425BF83274B00BE943DBF31C9011160
:100F20006C0022CC06CE2A84293B15CDFD576302E6
:100F3000F50237270020B2478345B7BA63EFB70001
:100F400003459402B385B7402EC6971004E0E780AE
:100F5000C05EF2406244056182803727002003278B
:100F600047BEBA97F1BF977005E0E7800093D5B709
:100F70008280797126D206D622D44AD04ECE52CC67
:100F800056CA5AC85EC68347550303447513AA84DC
:100F90003E941374F40F9307400263F68700130422
:100FA000B4FD1374F40F03AA841383AAC413A38B90
:100FB000841222865285D68597C006E0E78020827B
:100FC000058915E503CBD41201498149337B6403BC
:100FD000930B50024A865285D68597C006E0E7807B
:100FE0000080058915C5639169031374F90F238B7C
:100FF0008412B250225492540259F249624AD24A9F
:10100000424BB24B456182808509E20993D98941FF
:101010000509E31179FDE1BF83278509035605041E
:10102000797193D60701BD8EC206C182358E1357E2
:10103000764093575640898B058B5D8F935736408A
:10104000918B5D8F93571640A18B5D8F9317160080
:10105000C18B5D8F9317360093F707025D8F93174F
:1010600056009355860093F707041E065D8F13768E
:10107000F60F518F93D7554013D63540118A898B7F
:10108000D18F13D67540D18F13D61540218AD18FB9
:1010900013961500418AD18F1396350013760602F8
:1010A000D18F13965500137606049E05D18F93F5C4
:1010B000F50FCD8FA20745465D8F3307C70222D4B7
:1010C0002A8426D252CC56CA032A8413832AC413F4
:1010D0005AC806D63697420741839357774013552F
:1010E00057400989858BC98F135537401189C98F9E
:1010F000135517402189C98F131517004189C98FCE
:101100001315370013750502C98F13155700935532
:101110008700137505041E07C98F1377F70FD98F42
:1011200013D5354013D755401189098B498F13D5F5
:101130007540498F13D515402189498F13951500A6
:101140004189498F1395350013750502498F139511
:101150005500137505049E05498F93F5F50F4D8FC6
:101160002207D98FB387C7024AD04ECE5EC662C46B
:10117000B697C207C18313D7774013D55740098963
:10118000058B498F13D537401189498F13D51740E7
:101190002189498F139517004189498F139537008D
:1011A00013750502498F1395570093D58700137562
:1011B00005049E07498F93F7F70FD98F13D5354054
:1011C00013D755401189098B498F13D57540498F25
:1011D00013D515402189498F139515004189498FF1
:1011E0001395350013750502498F13955500137536
:1011F00005049E05498F93F5F50F4D8F2207D98F72
:10120000B387C702130650025285D685B697BD8EA6
:1012100093940601C18033F6C402137BF60F97B096
:1012200006E0E780C05B05890DED8347D4120149D4
:101230008149B3849702130C5002C1804A865285BB
:10124000D68597B006E0E78080590589937BF90F32
:1012500011C563863403850993F9F90F0509E31F66
:1012600089FD230B6413B250225492540259F2495F
:10127000624AD24A424BB24B224C456182805E8B1D
:10128000CDB70111B727002022CC03A407E326CA5B
:101290004AC84EC606CEAA8413092500854915C042
:1012A00083C7140003473400858B6304F700405C58
:1012B000FDB71946930544004A85EFF0AFA8E3183F
:1012C00035FF2285F2406244D2444249B249056169
:1012D00082804111B727002022C403A407E326C25D
:1012E0004AC006C693042500054901E82285B2409C
:1012F00022449244024941018280A6851305A4023A
:1013000097C005E0E780E05AE30225FF405CF1BFAB
:101310004111B727002022C403A407E326C24AC014
:1013200006C693042500054901E82285B2402244FF
:101330009244024941018280A6851305A40197C009
:1013400005E0E7800057E30225FF405CF1BF011193
:1013500022CC604126CA4AC84EC652C406CEAA84D0
:101360001D4A130965058549BC446364F4000545BD
:1013700081A803C7D40083474400631B470503C704
:1013800084026304F7000040C5B70347540083C7D5
:101390005405E31AF7FE1946CA8513056400EFF0F9
:1013A0006F9AE31235FF0347C40083C79402E31C1E
:1013B000F7FC0357E40083D7A402E316F7FC0145CA
:1013C000F2406244D2444249B249224A05618280D5
:1013D000E31BF7FA0347540083C75405E315F7FAF4
:1013E0001946CA8513056400EFF0CF95E31D35F962
:1013F000F9B70111B727002022CC03A487E226CA3F
:1014000006CE2AC42EC6854419E40145F240624442
:10141000D244056182808347910003471400858B85
:101420006304F7000044CDB719469305A1001305E6
:101430002400EFF02F91E31795FE0545C1BF000092
:10144000EFF00FAD730000000000000097120000E5
:101450009382A29A0383020023800200630F030099
:10146000F32510342EC0970500009385A5FD7390D9
:101470001534EF00004D7300203086DCEF00604C27
:10148000E65082800000B726002003A746EB01113A
:101490004AC81C5F4EC606CE998322CC26CA858BCD
:1014A0003689B7290020ADCF9307000637240020E6
:1014B0001CDF930784EB83C76700130700089304BE
:1014C00084EB6319F70083A709EB9C4393F70704A8
:1014D0002383F400834784EB93F7070489CFB7276E
:1014E000002083A787B88297C8CC834784EB93F703
:1014F000F70B230CF4EA83C7440093F707048DE34A
:101500008547A382F400B727002083A707EE37079B
:10151000020098C7130700FC2382E4009848F8D320
:10152000032749EB1C5F9183858B95C31C5F93E771
:1015300007011CDFB727002083A707EE054723A27A
:101540000706B7270020938787EB2382E70083A74E
:1015500009EBD8430583058B19C7D843759BD8C3BE
:10156000D843799BD8C3F2406244D2444249B2493D
:1015700005618280093F730020309317D50063DF37
:101580000700B727002083A707EE7D57B8D7B727F6
:1015900000209387C7B3D84F0507D8CF937785002E
:1015A00085CBB7270020938787EB03C727001367F6
:1015B00017002381E700130700F82382E700B7270D
:1015C000002003A747EB5C57F19B93E717005CD71C
:1015D0009377150085C7B7270020938787EB03C74C
:1015E000170013671700A380E700B727002003A7A1
:1015F00047EB5C57F19B93E717005CD79377650047
:101600008DC713774500B727002059CF03C787EB55
:1016100013671700238CE7EAB727002003A747EBDF
:101620005C57F19B93E717005CD79317F50063D2E3
:101630000702B7270020138787D68346870793873B
:1016400087D6C18ABDCA8347870793E70702230C61
:10165000F7069317E50063D60702B72700209387A4
:1016600087EB03C74700620761876355070005479B
:101670002382E700B727002083A707EE3707020081
:1016800098C79317C50063D00702B7270020938738
:1016900087D603C79707058B29C303C79707136727
:1016A0002700A38CE7068280938787EB03C7370068
:1016B00013671700A381E70085B703C7870789462B
:1016C0003D8B6308D70003C787078D463D8BE31228
:1016D000D7F81147238CE706ADBF03C79707118BD7
:1016E00079D303C797071367870065BFB727002023
:1016F000B726002003A607EE938786EB03C786EB89
:10170000058B11C723820700A3820700828003C7CD
:101710001700058B65FB785275F303C75700EDB7CB
:1017200037270020032847EB832788039583858B81
:10173000C1E311C683270803BD832300F60085CAD1
:10174000832747EB985B460793576701635607006B
:1017500093E707C0C207C18303970600C207C1878A
:1017600009C7BA970947B3C7E7022390F6009DCD92
:101770008345150085CDB7270020938787EB83C766
:10178000670013879500894593F7070485C33A9549
:10179000834705000547994593F6F7066398E600E9
:1017A000E207E187814563D30700B9452E85828032
:1017B0008545EDBF411122C406C626C24AC0372462
:1017C00000205DE1832604EE2E87FC52FDFFB72446
:1017D0000020938784EB23810700B727002093869E
:1017E00047B9D452938484EB138947B995C6B7E7B8
:1017F00000E0B706200023A0D728B7F700E083A6B3
:1018000007D1ED9A23A8D7D083A607D193E6860304
:1018100023A8D7D0730050103A85B285971006E000
:10182000E78000A3B727002083A747EBB706800017
:101830009843558F98C3D857719BD8D7832704EE08
:10184000A3820400A3800400094798C383274902A8
:101850009DCB37F700E0832707D193E78700232844
:10186000F7D07300501005A08D476314F504B72717
:10187000002083A747EBB70680009843558F98C395
:10188000D857719BD8D7832604EEB72700209387BB
:1018900087EB03C72700058B19E703C73700058BC4
:1018A00051CF23820700B2402244924402494101B1
:1018B00082808547E319F5FCB7270020138747B9D5
:1018C000545395C6B7E700E0B706200023A0D728F9
:1018D000B7F700E083A607D1ED9A23A8D7D083A657
:1018E00007D193E6860323A8D7D073005010832630
:1018F00004EE8177FD17D046F18FDCC60F10000093
:10190000832604EEB7070200930500F89CC6B727AC
:101910000020938787EB2382B700B727002083A797
:1019200047EB9C439D83858B99C793076019FCD235
:10193000D0C65C5331BF9307E01BD5BFF85231FBD3
:101940009DB7B727002083A707EE8847D847798D32
:1019500009C988C7B727002003A307A963030300A9
:101960000283828037270020B7260020138646EEA8
:10197000130747F08347D7008345B601484AAE971F
:10198000FD8BB355F500A300F600A306F70085898B
:1019900095E903471701814613080002B3F7E702F0
:1019A0000147B355E50085899378F70F89C9639599
:1019B000D700A30016018280850693F6F60F05076F
:1019C000E31107FF8280B7270020938787EB83C747
:1019D000570093F7F70FD1EBB727002083A787B8FD
:1019E000411122C44AC006C626C282973729002068
:1019F000930749F08047130949F06302A40663681E
:101A00008504018DB7240020938744EE83C7A70186
:101A100013545500938444EE6363F404A13783C7E1
:101A2000A401032789009396570036971D8C232421
:101A3000E900E375F4FE224403C51400B240924469
:101A4000024981454101171306E067008317B72754
:101A5000002083A747BE33848740229565B7B240F4
:101A6000224492440249410182808280B7270020AB
:101A700083A787B8011122CC26CA52C406CE4AC811
:101A80004EC68297B7240020938744F08047014ACE
:101A90006301A406938444F063668506018D3727AD
:101AA0000020930747EE83C7A70113545500137A0C
:101AB000F501130947EE636BF402B72900209389FF
:101AC00009BE4D358346A90103A8840083A54900BA
:101AD000139756004297158C3A8663640701636436
:101AE000B7003306B74090C4E37DD4FC1604336AD4
:101AF0004401F24062445285D2444249B249224AEA
:101B000005618280B727002083A747BE33848740C2
:101B1000229571B7B727002003A707EE896793873F
:101B200007F47CD3B727002083A747F383A60709D0
:101B3000139656006358060083A60709139666009D
:0C1B4000634406007453FDF28280000034
:101B4C00B72700203727002083A747B30327C7B246
:101B5C0001456313F700828083D6670081E683D644
:101B6C00470036959C43F5B7B727002083A547B9A6
:101B7C0037270020938747B913860522232AC7B23B
:101B8C0003D74700938785FFB72600204111BA97EA
:101B9C00056523A6F6B206C61D0593563700637479
:101BAC00E500930600203307D600372500202328B4
:101BBC00E5B223A0E522E1162312D600231306007A
:101BCC001CC3998FE1172312F700231307008D3FD5
:101BDC00B240B72700202391A7B441018280B727D8
:101BEC0000203727002083A747B38326C7B20145BF
:101BFC006393F600828003D7670011E703D7470091
:101C0C006373E5003A859C43E5B7B7270020B726F8
:101C1C00002083A747B303A6C6B22A87B305B540F5
:101C2C006314F6003A8529A8938687009C43E369E0
:101C3C00D7FEE377F7FE2E85E3E4D5FEE3F2F5FE5F
:101C4C00828023AC05FE1C4191E7010001000CC110
:101C5C008280BA8703A787FF6DFF23ACB7FE828013
:101C6C00184183A785FF6319B7001CC1FD5723AC2E
:101C7C0005FE238FF5FE8280232CF6FEC5BF411195
:101C8C0022C437E400E026C204403707200006C611
:101C9C00F98C2320E4180F10000009E9232094107C
:101CAC001545B24022449244410182800347E5FF2E
:101CBC009307F00F6306F700232094101145D5B756
:101CCC0097E0FB1FE7808045014523209410D1BF8E
:101CDC00411126C2B7E400E04AC003A90400B707CB
:101CEC00200006C622C43379F90023A0F4180F1083
:101CFC00000009E923A02411B24022449244024975
:101D0C00410182809565938505D0C98D2A84210572
:101D1C00C2054205C181418197E0FB1FE780C031BC
:101D2C0001CDFD5723200500231285002303F50068
:101D3C0023A024112105C9B723A0241101456DBF8F
:101D4C000111B7E700E04AC803A907004EC63707E0
:101D5C00200006CE22CC26CAAA893379E90023A01A
:101D6C00E7180F10000037250020032485B38144A9
:101D7C00014619E499E8A1654E85EF00B00431A83D
:101D8C008347E4FF6397370395C8A685130585B38E
:101D9C00C13D75D0A1654E854D2EF2406244B7E72A
:101DAC0000E023A0271126854249D244B24905619F
:101DBC00828091E02286032484FF65BFA284E5BF64
:101DCC0041114AC037E900E022C403240900370757
:101DDC00200006C626C2798C2320E9180F100000BB
:101DEC0089E523208910154515A0B727002083C746
:101DFC00D7B3AA842E8563F5F400894763EE970068
:101E0C00BD3DB7E700E023A087100D45B24022444A
:101E1C00924402494101828083A785FF99E703C759
:101E2C00E5FF9307F00F6308F700913DB7E700E07B
:101E3C0023A087104DBF37250020238F95FE130557
:101E4C0085B30135A1652685092601452320891016
:101E5C0075BFB727002023AC07B28280B7270020BC
:101E6C0083A707B999E33E85828003D727006316C1
:101E7C00B70003C70700E308A7FEDC47E5B7B9CDF9
:101E8C00011106CE22CC26CA8147C14633D7F54074
:101E9C00058B21C312053E9531473305E5023727E3
:101EAC000020832447BD05443314F4002EC642049D
:101EBC004180AA949C40C8408297B24523A004005C
:101ECC0023A20400A18DF2406244D2442E85056108
:101EDC0082808507E39CD7FA0144EDB72E8582807A
:101EEC00BDCD797122D406D626D24AD04ECE01442D
:101EFC004147B3D78540858BB1CF12053147229529
:101F0C003305E502B727002003A947BD8544B394E8
:101F1C008400C204C180BE892A990327090011C715
:101F2C00032549002EC60297B24531473304E4021B
:101F3C0083A749BD3E941C4489E723200900232232
:101F4C000900B2502254A58D02599254F2492E85A3
:101F5C00456182800504E31EE4F88144DDB72E85DB
:101F6C0082804111B7E700E026C284433707200086
:101F7C0006C622C4F98C23A0E7180F100000B7275F
:101F8C00002083A747BB372400201304849C91C7EF
:101F9C0082971C403E9508C031A0B727002083A72C
:101FAC0087B8FDF70840B74703009387D73F330541
:101FBC00F502B7A72600938737ECB2403E9508C0D0
:101FCC002244B7E700E023A097109244410182809D
:101FDC0001112E8626CAAA84131506019305F00456
:101FEC00418122CC06CE32C697E0FB1FE780C004AD
:101FFC002A8419C53246A68597E0FB1FE78080210D
:10200C002285F2406244D244056182807971B7E73F
:10201C0000E022D480433708200006D626D24AD0CE
:10202C004ECE52CC56CA5AC85EC662C43374040132
:10203C0023A007190F10000005E123A08710094504
:10204C00B250225492540259F249624AD24A424B3B
:10205C00B24B224C45618280B727002083A787B8FA
:10206C00BA8A368AB28B2E8BAA898297B727002020
:10207C0003A747BD3E898144B146C147338CD40286
:10208C0033068701104241E6C165938505F0414551
:10209C0097E0FB1FE78040FA19EDB727002083A7D4
:1020AC0047BC81C7814511458297B7E700E023A063
:1020BC0087102D4571B7B727002003A707B921E773
:1020CC0023A8A7B823000500832749BD054733176C
:1020DC00970023260500232475012311E5002322F4
:1020EC005501E29723A0370123A2670123A45701CE
:1020FC0063040A0023009A00B7E700E023A08710CE
:10210C0001453DBF3E875C47F5FF48C765BF850469
:10211C00E396F4F6B7E700E023A0871021450DB74E
:10212C00B727002083A7C7BD411122C406C6372498
:10213C0000201304C4B389C782975C483E9548C8F5
:10214C004848B240224441018280B7E700E09843FE
:10215C00B706200023A0D718758F0F100000B726E4
:10216C00002083C6D6B36372D5023726002093169F
:10217C0015000325C6B8369583560500D58D23105A
:10218C00B50023A0E7100145828023A0E7100D4580
:10219C008280B7E700E09843B706200023A0D71849
:1021AC00758F0F100000B726002083C6D6B363745A
:1021BC00D50237260020931615000325C6B893C503
:1021CC00F5FF369583560500F58D2310B50023A039
:1021DC00E7100145828023A0E7100D458280011194
:1021EC0037E700E026CA0443B706200006CE22CC0F
:1021FC004AC84EC652C4F58C2320D7180F100000C5
:10220C00130705FF1377F70FFD4763E2E70AB146A3
:10221C00B306D502B727002003A747BD36971C434A
:10222C00D9C71359450005443D893315A40013142F
:10223C0005014180AE894A85A2850D312A8A39C9AA
:10224C00A2854A85B937B727002083A787B83729D5
:10225C000020130909BE8297835789002A8481467E
:10226C00B385370313060064B3B737031385053200
:10227C00B335B500BE95EFA00234B30785003E8799
:10228C008326490063E4A70063E4D7003387D74073
:10229C002324EA00B7E700E023A097100145F240A1
:1022AC006244D2444249B249224A05618280B7E76E
:1022BC0000E023A097100945DDB70111B7E700E056
:1022CC0026CA84433707200006CE22CC4AC84EC605
:1022DC00F98C23A0E7180F100000BD4763E8A70492
:1022EC0031473307E502B727002083A747BDBA97CC
:1022FC009C438DCF05443314A400420441802E89A5
:10230C000145A285A13EAA8911C5A2850145513579
:10231C0023A42901B7E700E023A097100145F24060
:10232C006244D2444249B24905618280B7E700E079
:10233C0023A097100945E5B779714AD037E900E039
:10234C0026D283240900B707200006D622D44ECE0D
:10235C0052CC56CA5AC85EC6FD8C2320F9180F10F1
:10236C000000B727002083C7D7B36378F500B727E1
:10237C00002083AB87B863970B00B7E700E023A07E
:10238C00971099A0B7290020938909BEAE8A03AB98
:10239C00490083D58900B74736FE938707C83E9B13
:1023AC00B387C5022A84328A8146B3B5C502138528
:1023BC000732B337F50013060064BE95EFA0A21FD9
:1023CC006370AB02232099100145B25022549254F1
:1023DC000259F249624AD24A424BB24B4561828061
:1023EC00829B83D589002A8913060064B387450331
:1023FC008146B3B5450313850732B337F500BE9557
:10240C00EFA0621BB30725013E8903A7490063E4D3
:10241C00A70063E4E7003389E740D68522853D3C7D
:10242C0009C923242501B7E700E023A0971005452F
:10243C0069BF936504F0C205C181414597E0FB1F5C
:10244C00E78080BF11E9B727002083A747BC95D749
:10245C00A2851145829715B737270020832707B926
:10246C0095E32328A7B885472326050023242501B7
:10247C002311550123008500A300F500232205003C
:10248C005DB7BA87D84775FFC8C7F1BF7971B7E791
:10249C0000E026D284433707200006D622D44AD047
:1024AC004ECE52CC56CA5AC85EC662C466C26AC008
:1024BC00F98C23A0E7180F1000002DC14144B689F8
:1024CC00B28A2E8A2A89B14C372B0020054D130C69
:1024DC000003B30B940303274BBD5E971C43A5E38A
:1024EC009375F400B315BD0013554440C2055686D0
:1024FC00C1811375F50F893539C183274BBDDE9723
:10250C0023A0270123A247016384090023808900AB
:10251C00B7E700E023A09710014521A023A0971056
:10252C000945B250225492540259F249624AD24A95
:10253C00424BB24B224C924C024D456182800504B9
:10254C00E31984F9B7E700E023A097102145D1BF28
:10255C000111B7E700E026CA844322CC4AC84EC614
:10256C003707200006CE2A84AE893289F98C23A045
:10257C00E7180F100000C9332285CE85C5302A8498
:10258C0005C5B727002083D587BE13060064814696
:10259C00B3872503B3B5250313850732B337F5008D
:1025AC00BE95EFA0420148C013351400F2406244BE
:1025BC00B7E700E023A097104249D244B2490E0578
:1025CC00056182800111B7E700E04AC803A9070042
:1025DC0022CC4EC63707200006CE26CAAA892E84E6
:1025EC003379E90023A0E7180F1000008538AA847E
:1025FC0019C123110500A2854E85613EB727002025
:10260C0083C7C7B363993701B727002003D747B8EF
:10261C00598C239287B8B7E700E023A02711014516
:10262C0091E01945F2406244D2444249B2490561F5
:10263C00828001114AC837E900E022CC032409004A
:10264C00B707200006CE26CA4EC67D8C2320F9186B
:10265C000F1000009307F00263E6A704B147B30420
:10266C00F502B729002083A749BDA6979C439DCBB3
:10267C009377F5008545B395F500C205C1811181AD
:10268C00913783A749BD0145A69723A0070023A234
:10269C00070023208910F2406244D2444249B249D7
:1026AC0005618280B7E700E023A087100945E5B7F4
:1026BC004111B7E700E026C2844306C622C437079F
:1026CC002000F98C23A0E7180F100000EFF00FF991
:1026DC0019E90145B2402244B7E700E023A0971066
:1026EC00924441018280B727002083A787B8004518
:1026FC008297B7270020938707BE6368A402D8434C
:10270C00B74636FE938606C83305A4403697E37267
:10271C00E5FC13070064B335E50203D68700814658
:10272C003305E502EF90326975B7D8433A94C1BFCF
:10273C00411122C426C237240020B72400201307DD
:10274C0004BE9384C4B394485843B727002006C6EC
:10275C0083A787B8130404BE6392E608829754409B
:10276C00B74736FE938707C8B6973387A7003A85D5
:10277C006364F7006364D7003305D740B7240020A7
:10278C00938784EBDC53938484EB99CBB72700209D
:10279C0083A647F33707CDFF7D179C46F98F9CC660
:1027AC0011E14840B727002083A787BB829719E522
:1027BC00DC5085C3EF006212EFF06156DC5091CB18
:1027CC00B727002003A747F3B70633001C47D58F64
:1027DC001CC7B240224492444101828082979448A3
:1027EC005840B387A6003E8563E4D700E3E8E7F8DA
:1027FC003385E74061B74111B727002006C623AEE9
:10280C00A7BC0295B240B727002023AAA7B4014564
:10281C0041018280994763E9B700B72700208A05F8
:10282C00938787B6BE9588C18280B727002023ACDA
:10283C00A7BC11C5B727002005472383E7B88280C2
:10284C00B727002023A807B8B727002023AE07BC62
:10285C00B727002023A407B837250020B72700206E
:10286C004111238307B87146B72700208145130512
:10287C0085B606C623AC07BC22C426C2372400206A
:10288C0097E0FB1FE78020A01305C4B3130680025A
:10289C00814597E0FB1FE780009FEFF0EFACB72777
:1028AC000020938747B903C5C70383C7D703130415
:1028BC00C4B385453E958D473305F5029947B7243A
:1028CC00002039051375F50F2301A4003305F5021B
:1028DC001305052497D0FB1FE780007623AAA4BC20
:1028EC0049C103462400994781453306F602130675
:1028FC00062497E0FB1FE780009983A744BD03479C
:10290C002400B7240020938707240A0723A2F4B6D7
:10291C00BA97372700202326F7B8EFF08FD3A529D5
:10292C008347140083A644B6372604001397270068
:10293C0036971306C6EE10C3138717001377F70FDD
:10294C000A073726040036971306A6E810C3138728
:10295C003700890793F7F70F8A07A300E400B697AF
:10296C0090C3B24022449244410182803727002018
:10297C001307C7B3834717008346270063F0D702BA
:10298C00B726002083A646B613861700A300C700FF
:10299C0013972700369708C33E8582809307F00F64
:1029AC00E5BF1C41638C071041777D8FB706002073
:1029BC0089476316D710035745006302071041116E
:1029CC0026C21946AA849305F00F610506C622C4D7
:1029DC0097E0FB1FE780209605478D47630AE50CBF
:1029EC009C4491C7D858994761C7985C71C33724E8
:1029FC000020130600048145130544B997E0FB1F22
:102A0C00E780608813060004A685130544B997E097
:102A1C00FB1FE7802080930744B903D7C70009E761
:102A2C00130700102396E70003C7E70001E70547EB
:102A3C002387E70003D7070101E76D472398E700D9
:102A4C0003C7F70001E71547A387E70003C7270172
:102A5C0001E705472389E70003C7370109E703C7E7
:102A6C00F700A389E70003C7570101CB9376370022
:102A7C000983238ED702A38EE70203C7470101E720
:102A8C005547238AE70003C7640109E71307C0030E
:102A9C00238BE7009C5791C78297B727002023927E
:102AAC00A7B4B72700207D57A380E7FA513B814795
:102ABC00B240224492443E854101828089473E8542
:102ACC00828001114AC837290020832709BE06CE0F
:102ADC0022CC26CA52C456C24EC68297130A006430
:102AEC00B3354503130909BE835A890081465686BE
:102AFC0033054503EF90322CB72700201387C7B35B
:102B0C00004FAA840145630694029389C7B33385A9
:102B1C008440636E94000325490056868146B33584
:102B2C00AA023305AA02EF901229018D269523AC37
:102B3C009900F2406244D2444249B249224A924A34
:102B4C0005618280011122CC2E84B7D506000A853E
:102B5C004146938505A106CEEF90725F18080604D6
:102B6C003A94B7270020035504FF83D7A7BEF24041
:102B7C006244AA9737450F00130505243355F50217
:102B8C0005618280B727002083D7A7BE51471D451A
:102B9C00637CF702794719456378F7021307200322
:102BAC0015456373F7021307B0041145637EF700F4
:102BBC00130740060D456379F700130760090945B3
:102BCC006374F70013B5B70F8280011122CC06CEC7
:102BDC002A842EC6EFF0EFB8B245F240818D33A5B2
:102BEC00A502229562441375F50F056182800111CF
:102BFC0022CC06CE2A842EC6EFF0AFB6B245F240F8
:102C0C00818D33A5A502229562444205418105615F
:102C1C008280011122CC06CE2A842EC6EFF06FB42E
:102C2C00B245F240818D33B5A5022295624405610F
:102C3C008280B7270020138747B918572DC341113D
:102C4C0022C426C24AC006C6138947B90297B727C1
:102C5C0000201387C7B3035787002A849384C7B314
:102C6C000DCBBA876373A700AA87C207C183BA8644
:102C7C006373E400A286C206C182958F5147635AE2
:102C8C00F7008327C90291C38297EFF0312E23946A
:102C9C008400B240224492440249410182808280E5
:102CAC000111B727002022CC3724002023AA07BE0D
:102CBC00930744B9DC5706CE26CAAA85130444B937
:102CCC0081C72AC68297B245C9C99C410545C9C36B
:102CDC00DC41BDCF83D78500A5CF83D7A500ADCB75
:102CEC00B7240020138504BE5146938404BE97D0AC
:102CFC00FB1FE780205223860400B727002083A601
:102D0C0007BE372700202324D7B8034774011DE3DF
:102D1C00938707BE03D587009307805737460F006C
:102D2C003305F5021306062481468145EF90B2085F
:102D3C00A30BA40003477401A54763E5E700A9476B
:102D4C00A30BF400373504001305E5AC6D340145D5
:102D5C00F2406244D24405618280B72700209387F9
:102D6C00C7B33707002023AE07001307876AB727BE
:102D7C00002023A0E7BE37873200938707BEFD569D
:102D8C00130727A1D4C398C723860700B7C70040F1
:102D9C0023A4D7269DB7011122CC372400209307FA
:102DAC0044B9884706CE26CA4AC801E90545F2400F
:102DBC006244D244424905618280130444B95C5890
:102DCC00F5D7185C65D77000854582971844B247D3
:102DDC00E30EF7FC0355C4009305E004B724002070
:102DEC0097D0FB1FE78040251387C4B308D3938487
:102DFC00C4B34DDD0356C4009305F00F014997D0C1
:102E0C00FB1FE78040488347E4009050634DF90076
:102E1C00328597D0FB1FE7806030014523A0040268
:102E2C0023A2040269B78355C4000844185CB38715
:102E3C002503898105093E9508C20297E9B701115E
:102E4C004EC6B7290020938749B99C4726CA4AC861
:102E5C0052C406CE22CC56C25AC02A8AAE843289BB
:102E6C00638D071E938949B903A7490363040712AD
:102E7C001307F01F6362A712372400201307C4B393
:102E8C00832A07021304C4B3639A0A0803D5C90042
:102E9C009565938515E097D0FB1FE780E01908D066
:102EAC002A866DC983D5C90083A7490303A5890068
:102EBC008981829783A78900832A04025CD0894781
:102ECC006316FA08C1476397F40C83D5C900914780
:102EDC00938505FCB3C5F5028A05D69503C7250075
:102EEC009307A0056314F70A83D705006390470B7B
:102EFC004A852686910597D0FB1FE780A0311C5090
:102F0C005685639357130145F2406244D2444249BB
:102F1C00B249224A924A024B056182805850E380A2
:102F2C00E7FA03D5C9009565938525E097D0FB1F7B
:102F3C00E7808010AA8A39CD83D5C9002A8683A759
:102F4C00490303A589008981829795BF8D47631B2F
:102F5C00FA00C1476390F40483D5C900938545FDFD
:102F6C00F199A5BF91476318FA006395440383D583
:102F7C00C900A115F5B793070010631DFA00A1470E
:102F8C0063EA970083D5C900C115D9BF1C5056857B
:102F9C006390570D29458DBF9D6A637C5509930A33
:102FAC0005E01947B3CAEA0203D7C900372B002042
:102FBC00B38AEA02BE9A9307CBB3DC53130BCBB3A1
:102FCC006395570103240B021DE003D5C90093053B
:102FDC00E00497D0FB1FE78020062A8445DD83D5CB
:102FEC00C90083A749032A86898156858297914512
:102FFC001307A005898193972500A29783C6270004
:10300C006393E60483D60700639C460385058A0513
:10301C002686A2954A8597D0FB1FE780A01F8327A1
:10302C000B02E38287EE228597D0FB1FE780000F0F
:10303C00D9BD21677917E36FA7F4B30A5541ADB732
:10304C0083C5370045BF83270B02E38587F42285B0
:10305C0097D0FB1FE780800C35BFB727002083A5D6
:10306C00C7B58DD991479306A0058983139727007F
:10307C002E9703462700E31FD6F003560700631C68
:10308C00460185078A072686BE954A8597D0FB1F81
:10309C00E78040188DBD83473700C1BFB72700209C
:1030AC00938747B9984729C3985F1DCF8546631D01
:1030BC00D502411122C4372400201304C4B310508C
:1030CC0006C619CE83D5C70048508981029708508F
:1030DC0097D0FB1FE78080042320040223220402E4
:1030EC00B2402244410182808280011122CC3724DB
:1030FC000020930744B956C283AA870026CA4AC83F
:10310C004EC606CE52C42A89AE84B289130444B981
:10311C00638C0A1C1C5C99EB2945F2406244D24436
:10312C004249B249224A924A056182805C58EDD7E5
:10313C009307F01F63E8A70C372A00209307CAB344
:10314C009C53130ACAB3B9C7084483274A02639F26
:10315C00A70489476317F906C147E39FF4FA03559F
:10316C00C4009147130505FC3345F5029317250060
:10317C0003250A022686CE853E959307A0052301DA
:10318C00F50023102501110597D0FB1FE78080085F
:10319C00014561B70355C4009305E00497D0FB1FAC
:1031AC00E78080E92320AA0245F1BDB78355C4000E
:1031BC005C5803260A02898182971C442322FA0256
:1031CC0049BF8D47631CF900C147E397F4F40355DD
:1031DC00C400130545FD9377C5FF59BF914763188C
:1031EC00F900E39B24F30355C4002115EDB79307B5
:1031FC000010E313F9F2A147E3E097F20355C40082
:10320C004115D1BF9D676378F506930705E0194713
:10321C00B3C7E7020357C400372A0020B387E7027D
:10322C00BE9A9307CAB39C53130ACAB3A1CF832780
:10323C004A026395570703250A0291461308A00515
:10324C009305F00F93D72600139727002A97034670
:10325C002700631606078358070003463700639C54
:10326C002805B306D64063C6960485078A072686CA
:10327C00CE853E9511BF21677917E36FA7E8B30799
:10328C00F54049BF0355C4009305E00497D0FB1FDC
:10329C00E78080DA2320AA0259F9BDBD8355C4000A
:1032AC005C5803260A0289815685829723225A0389
:1032BC0059B72310B70093160601C18261B70356A4
:1032CC00C400B38596009105130606FCE366B6E4CC
:1032DC0013863400719A1106B2962301070123104C
:1032EC002701A301D70051B7372A00209307CAB38F
:1032FC009C53130ACAB3A9C303250A0291461308A7
:10330C00A0059305F00F93D72600139727002A9753
:10331C00034627006314060583580700034637004D
:10332C0063982801B306D640E3D196F42310B70076
:10333C0093160601C182C1BF0345E4008357C40044
:10334C009305E0043305F5024205418197D0FB1F3C
:10335C00E78080CE2320AA0245F17DBB0356C40032
:10336C008345E400B385C502338696001106E3E578
:10337C00C5DAB9BF0145828083C705002300F5007B
:10338C0083D72500A300F50083D72500A183230153
:10339C00F50083C74500A301F50011458280B727CE
:1033AC00002023AE079EB727002023AC079E828007
:1033BC0029C1411126C206C622C4AA8401458DC565
:1033CC002E84B7D5060022854146938505A297D059
:1033DC00FB1FE78020E483C7040005452306F400A7
:1033EC0083C71400A306F400B24022449244410166
:1033FC00828001458280011122CC26CA06CE094763
:10340C00AA8432846381E50441468147639BC500ED
:10341C00638FE6006397B6000DA841478147638E22
:10342C00E600F2406244D2443E85056182808A8582
:10343C002285BD3F41468A8519A88A85953F41461C
:10344C008A85228531A0E39AB6FC2E86A285268534
:10345C0097D0FB1FE78080E7AA87E1B7B72700204A
:10346C0023ACA79E8280B727002023AEA79E828024
:10347C00011122CC0354650006CE26CA4AC84EC69A
:10348C0041C083298500AE842A8803C9090081477D
:10349C0013178901618763550702B147054563FA24
:1034AC008704511442040355280041803387890056
:1034BC00A2864E868545EFC06011B337A000850704
:1034CC007D1413556900420405891379F903418071
:1034DC002380F400A380A400238124012392840080
:1034EC00014719C01387190098C409476383E70083
:1034FC000145F2406244D2444249B249056182809E
:10350C000545C5BFC167F917630AF502D94763F7CB
:10351C00B702011122CC2EC606CE2A84EF90604B46
:10352C00B2456368B50022856244F24005616FA024
:10353C00B071F24062440545056182800545828088
:10354C00C167F9176314F5006F90A048411106C6C6
:10355C00EFA0505E11E15D45B24041018280914780
:10356C006394F502834705002300F600834725008A
:10357C0003471500A207D98F2311F60083473500A6
:10358C0001452302F600828011458280411181455C
:10359C0022C426C206C6AA8405252A8409E9B727AF
:1035AC00002083A7879F81C7F945268582972285AE
:1035BC00B240224492444101828039714ED656D297
:1035CC005AD006DE22DC26DA4AD852D4AA8A2E8BAE
:1035DC00B28941EF36C6AD379145EF904051AA8480
:1035EC004D492DC9B246054A238034010544630A6E
:1035FC000B00B68513851400029B050513140501F9
:10360C004180E20993D9894163D30902C1455685AA
:10361C00EFA09060654905E933868400A285268574
:10362C00EFB0D03F2A8905E1310442044180914733
:10363C002C085685231CF10026CE231D8100EFA0FB
:10364C0040662A8901C963070A00268597D0FB1FAB
:10365C00E780C0ACF25062544A85D2544259B259F8
:10366C00225A925A025B21618280BA84014AADBF10
:10367C00011122CC26CA4AC84EC606CE2A893284EB
:10368C00B689253FAA840DE1B727002083A7C79FE1
:10369C0081CF05476317E40003C4090005041374C4
:1036AC00F40FA2854A858297F240624426854249EE
:1036BC00D244B24905618280AE86B7350400014719
:1036CC000546938545386DB783D705002300F50073
:1036DC0083D70500A183A300F5000945828083D719
:1036EC0005002300F50083D70500A183A300F50096
:1036FC0083D725002301F50083D72500A183A301DF
:10370C00F5001145828083D705002300F50083D78F
:10371C000500A183A300F50083D725002301F50044
:10372C0083D72500A183A301F50083C7550023028D
:10373C00F50083C76500A302F50003D585001905C4
:10374C0042054181828083D705002300F50083D791
:10375C000500A183A300F5000945828083D70500ED
:10376C002300F50083D70500A183A300F50083D7C0
:10377C0025002301F50083D72500A183A301F500C3
:10378C001145828003D545000605420541818280A2
:10379C0083D705002300F50083D70500A183A30080
:1037AC00F50003D52500090542054181828083D7A8
:1037BC0005002300F50083D70500A183A300F500C5
:1037CC0083D725002301F50083D72500A183A3010E
:1037DC00F50003D54500110542054181828083C760
:1037EC0005002300F5000545828083D705004111B3
:1037FC0022C406C62300F50083D705002E841105CC
:10380C00A183A30EF5FE83D725009505230FF5FEA6
:10381C0083D7D5FFA183A30FF5FE03C6F5FF97D081
:10382C00FB1FE780209F03454400B2402244110552
:10383C00410182808947639CF5008347150003474B
:10384C0005000145A207D98F2310F600828011458F
:10385C00828003D70500D94763FEE702011122CC11
:10386C0006CE2EC62A84EF90C016B24683D7060029
:10387C00636DF50022856244F240B73504000147C0
:10388C0009469385456D05610DBBF24062440945BF
:10389C00056182800945828091479DC5834605005C
:1038AC00FD15C2058547C1816392F60213D7250029
:1038BC008D89914791E9914701CB05052301D600EC
:1038CC002310E60048C281473E8582800947914714
:1038DC00E39CE6FEC94733D7F502B3F5F502D1BF39
:1038EC00AE86B7350400014711469385A56EF1B13C
:1038FC0093F7350091EB8981914789C52310B60068
:10390C0048C281473E8582809147EDBF03C7450081
:10391C008947631AF702011122CC2A84C84506CEC6
:10392C00AE86014719C52EC69D45EFE00FAEB246D7
:10393C002A8722856244F240B735040019469385E4
:10394C00257105619DB90945828099E111458280F7
:10395C008347050005472311F600E379F7FEFD15B3
:10396C0093F5F50F33D7F502B387E702E390F5FE35
:10397C00050548C22310E6000145828083C7450037
:10398C000947AE866385E70041476399E700B73581
:10399C000400014721469385657F05B10945828066
:1039AC002310B60091E1014548C201458280AE86E4
:1039BC00B73504000147294693852575FDBE2310B4
:1039CC00B60091E1014548C201458280AE86B7350B
:1039DC0004000147314693858576C5B62310B600A1
:1039EC0091E1014548C20145828003D745008547D6
:1039FC0063FDE702011122CC2A84884106CE0DC159
:103A0C002EC68545EFE06FA02A8722856244B24618
:103A1C00F240B7350400394693850579056171BECE
:103A2C00F2406244094505618280094582809147D4
:103A3C009DC5034705008D46914763F2E602FD15CF
:103A4C00C205C181B3C6E5023308D70263990501EB
:103A5C0005052310D6002311E60048C281473E8598
:103A6C00828083C745000947AE866385E7004147DE
:103A7C006399E700B7350400014741469385657F9C
:103A8C002DBE09458280B335B00013952500828088
:103A9C00011122CC26CA06CE03C785008547AA840D
:103AAC002E8449466310F702613C83572400491564
:103ABC001306200963C8A700F2406244D2440945AA
:103ACC00056182800347940085476314F7001366F1
:103ADC000604484011C58D4532C6EFE00F933246BF
:103AEC00A2866244F2402A872685D244B735040068
:103AFC009385C5790561D1B48D4763FFB7028347C0
:103B0C00150003470500F115A207D98F2310F60005
:103B1C008347350003472500C205A207C181D98F11
:103B2C002311F6002312B60089C5110508C60145FC
:103B3C00828023240600E5BF11458280011122CC2E
:103B4C002A84884506CEAE8611C52EC69545EFE073
:103B5C00CF8BB2462A8722856244F240B7350400E7
:103B6C0059469385A57B056189BCB335B000139587
:103B7C0025008280AE86B7350400014761469385E7
:103B8C00A57E25BC8547114563F4D70283471600F3
:103B9C0083450600A207CD8F2310F7009387E6FF1D
:103BAC002311F70089476386F600090650C30145C7
:103BBC00828023220700E5BF014781467946814573
:103BCC00EDBA83D705002300F50083D70500A18348
:103BDC00A300F5000945828083C725000547230013
:103BEC00F50003D505006397E7000A0505054205B6
:103BFC0041818280C9473305F502CDBF03D505004D
:103C0C000A0542054181828083D725002300F500F7
:103C1C0003D5050083D725003305F50205054205BC
:103C2C004181828003D50500828003D50500828006
:103C3C0003D50500828083D725002300F50003D52A
:103C4C00050083D725003305F502050542054181A2
:103C5C00828083D705002300F50083D70500A1835C
:103C6C00A300F50083D725002301F50083D7250099
:103C7C00A183A301F50003D545001105420541813F
:103C8C00828083D705002300F50083D70500A1832C
:103C9C00A300F50003D5250009054205418182806A
:103CAC0089471145639BF60083471600834606003F
:103CBC000145A207D58F2310F700828003D705009A
:103CCC00D947AE8663F9E700B745040001470D46B6
:103CDC009385E5BC71BA0945828011456393A602B0
:103CEC0083471600834606000145A207D58F231093
:103CFC00F7008347360083462600A207D58F231191
:103D0C00F700828083C725000547FD1793F7F70F4F
:103D1C006361F70483D705008DCF011122CC2A846F
:103D2C00C84106CE15C12EC68945EFD01FEE2A8795
:103D3C0022856244B246F240B7450400154693858D
:103D4C0045BE05616FF0DF92F240624409450561A2
:103D5C008280094582809547114563F9D706411148
:103D6C0022C426C24AC006C683471600BA8403473B
:103D7C000600A2073284D98F2390F40083473600C3
:103D8C000347260093054400A207D98F2391F40022
:103D9C0089472382F400094613855400368997C05D
:103DAC00FB1FE78020479307A9FF2394F400994752
:103DBC00631BF90023A60400B2402244924402493A
:103DCC000145410182801904C0C4FDB7828083D7AC
:103DDC0005008DCF011122CC2A84C84106CE15C115
:103DEC002EC68545EFD07FE22A8722856244B246F3
:103DFC00F240B74504001D46938585C005616FF000
:103E0C003F87F24062440945056182800945828002
:103E1C0099476395F6048947411106C62302F700BA
:103E2C008347160083460600B285A207D58F231060
:103E3C00F700834736008346260003464700A20757
:103E4C00D58F130557002311F700910597C0FB1F61
:103E5C00E780403CB240014541018280D147114589
:103E6C006394F600C1474DBF828083D705008DCF88
:103E7C00011122CC2A84C84106CE15C12EC6894513
:103E8C00EFD0BFD82A8722856244B246F240B745AC
:103E9C0004002546938545C105616FF06FFDF24026
:103EAC006244094505618280094582808947114534
:103EBC00639BF60083471600834606000145A20764
:103ECC00D58F2310F7008280011122CC2A84C8419F
:103EDC0006CEAE86014719C52EC68545EFD0FFD25A
:103EEC00B2462A8722856244F240B74504002D462B
:103EFC00938505C305616FF0AFF711456393A60277
:103F0C0083471600834606000145A207D58F231070
:103F1C00F7008347360083462600A207D58F23116E
:103F2C00F7008280011122CC2A84C84106CEAE86CD
:103F3C0011C52EC68545EFD05FCDB2462A872285A6
:103F4C006244F240B74504003546938565C305616C
:103F5C006FF00FF293F71600114589EB89476387D1
:103F6C00F60085822312D70010C30145828001110F
:103F7C0022CC2A84C84106CE15C12EC68545EFD069
:103F8C00DFC82A8722856244B246F240B745040056
:103F9C003D469385C5C305616FF08FEDF2406244D9
:103FAC0009450561828083D705008DCF011122CC94
:103FBC002A84C84106CE15C12EC68945EFD0FFC450
:103FCC002A8722856244B246F240B7450400454632
:103FDC00938525C405616FF0AFE9F2406244094551
:103FEC000561828009458280854763FCD7022304E2
:103FFC00A700A304B7008347160083450600A20759
:10400C00CD8F2310F7009387E6FF2311F700894724
:10401C006386F600090650C30145828023220700FF
:10402C00E5BF11458280014781464D4681456FF0C1
:10403C002FE48D47114563FBD70283471600834558
:10404C000600A207CD8F2310F70083473600834567
:10405C002600A207CD8F2311F7009387C6FF2312EA
:10406C00F7006386A600110610C701458280232441
:10407C000700E5BF011122CC2A84884506CEAE8606
:10408C0011C52EC69545EFD05FB8B2462A8722855A
:10409C006244F240B74504005D469385E5C5056171
:1040AC006FF00FDD854711456397F60083470600D7
:1040BC0001452300F7008280014781466546814512
:1040CC006FF00FDB011122CC2A84C84106CEAE86DC
:1040DC00014719C52EC68D45EFD03FB3B2462A878E
:1040EC0022856244F240B74504006D469385E5C8CD
:1040FC0005616FF08FCC011122CC2A84C84106CE09
:10410C00AE86014719C52EC68D45EFD01FB0B246FD
:10411C002A8722856244F240B74504007546938590
:10412C00E5C805616FF06FC9011106CE2EC6EFA070
:10413C00801C01C9B245F2400355250005616FE0B2
:10414C006073F240494505618280B7270020A38443
:10415C0007A2B7270020238407A2B727002023A893
:10416C0007A0B727002023AA07A0B727002023AC5D
:10417C0007A0B727002023AE07A0B727002023A64F
:10418C0007A0B727002023A407A0B7270020239C53
:10419C0007C093064038938787C12391D702F176E5
:1041AC001307400B938606B82391E7002392D7029E
:1041BC0011679D46130600059305000A1305007D43
:1041CC002392E7002393D70241478546130810F842
:1041DC002395E7002396E7002399E700239AE7004D
:1041EC00239BE700239CE7002394E7022393B7006B
:1041FC002394B7002397C7002398C700239DA700DB
:10420C00239E0700239F0700239007022395D702C4
:10421C0023960703239707029308F00723980702B6
:10422C002392E7042393E704239FE7042390E706F4
:10423C002391E7062392E706239917031307C01C63
:10424C00239AD702239BD702239C0702239D0702A4
:10425C00239E0702239F0702239007042391D70470
:10426C0023940704239507042396D7042397C704A4
:10427C002398C7042399A704239A0704239B0704B4
:10428C00239C0704239DC704239EC7042393A706DE
:10429C002394070623950706239607062397B7064C
:1042AC002398B70623990706239AE7065147239DBF
:1042BC00E7067D57239B0706239C0706239ED706FC
:1042CC00239F0706239007092391E7088280011199
:1042DC0026CAAA84214522CC06CE2E8432C636C4E8
:1042EC003AC2EFD0FF9E1DC9A24612473246930731
:1042FC0000FD2300F5009947A30095002301F5006C
:10430C002303D500A303E5002312C500AA8522854B
:10431C006244F240D24405616FD09FAAF2406244DD
:10432C00D24405618280B727002023A8A7A08280F1
:10433C00B727002023AAA7A08280B727002023AC90
:10434C00A7A08280B727002023AEA7A082800111EE
:10435C0022CC4AC806CE26CA2A890144B304890055
:10436C006368B400F2406244D244424905618280E1
:10437C002EC6EFD01FBF93170501C183A183B24591
:10438C002380F4009307140093F7F70F850463F967
:10439C00B700CA9709042380A7001374F40F7DBFDC
:1043AC003E847DBF411122C437240020130484BFF6
:1043BC0003556400C16706C6FD17630FF500B727E8
:1043CC00002003C687D5B7250020938505A2EF9062
:1043DC003050FD572313F400B24022444101828037
:1043EC0009C925151375F50F1335850E13451500E1
:1043FC0082800145828023900500C9C6797122D440
:10440C0026D24ECE52CC5AC806D64AD056CA5EC612
:10441C003684328AAE892A8B814463F34407B3070E
:10442C00940083C70700138914004209939A07016B
:10443C0093DA0A011359090163840A04CA97634188
:10444C00FA04B307240183CB07005E85513F0DC9E5
:10445C009387FAFF2390F90063906B0313051900FF
:10446C002295B250225492540259F249624AD24ACD
:10447C00424BB24B45618280D694C204C18071BF5D
:10448C000145C5B701458280011122CC372400209B
:10449C0026CA4AC84EC6930784BF06CE2E89D0CBF7
:1044AC008CCBC8C7AA8441469305F00F4A8597C0A8
:1044BC00FB1FE78040E88549130484BF631935036B
:1044CC000848C145693541469305F00F268597C0CC
:1044DC00FB1FE78040E60549631525034844624409
:1044EC00F240D2444249B249C14505618DB54146BD
:1044FC0081454A8597C0FB1FE780E0E3E31535FD56
:10450C00C1B741468145268597C0FB1FE780A0E2D5
:10451C00E30625FDF2406244D2444249B2490561AA
:10452C008280411122C43724002026C24AC0AE84A6
:10453C002A89130600028145130584BF06C697C05D
:10454C00FB1FE78040D4930784BFA3812701B727C3
:10455C000020238E97D4EFE02034854719C1814782
:10456C004945230CF4BEB240224492440249410115
:10457C008280814781CD19C98547631BF50083C7AC
:10458C00550093E707FCA382F50085473E858280A2
:10459C0089476317F50083C7550093F7F703E5B711
:1045AC000D478547E314E5FE03C755001377F70362
:1045BC0013670704A382E500D1BF81478DC105C1F4
:1045CC0003C755009306000C85471377070C630847
:1045DC00D700930600048D476303D70089473E85B7
:1045EC008280411122C4005D06C626C21DC8AA8461
:1045FC00085009C597C0FB1FE78040B2485009C559
:10460C0097C0FB1FE78080B1085409C597C0FB1FFA
:10461C00E780C0B0228597C0FB1FE78020B023AC99
:10462C000402B240224492444101828019E9B72726
:10463C00002083C7A7BF91C737250020130505A00D
:10464C00828037250020130505C18280B727002002
:10465C0003C5A7BF8280B727002003A547C082806F
:10466C00B727002003A587C08280B727002083A727
:10467C00C7C088438280B7270020938787BFD44B5D
:10468C009842050798C203C537009307F00F6305DE
:10469C00F50091656FD07FAB8280011122CC06CEE4
:1046AC002E8432C6EF90D0559147B2456310F50277
:1046BC00B727002083A7C7A195C303A30700630FE7
:1046CC00030022856244F24005610283B727002073
:1046DC0083A747A181C703A34700D5B7F240624423
:1046EC00054505618280011122CC2A8403554500C1
:1046FC0006CE26CA4AC84EC6EF90B02E25CD2A89C2
:10470C00834405008349C500E93D4A85EFA0600E4E
:10471C0003554400EF90104A37290020130989A251
:10472C0083470900A1CF639B9704B727002083C55B
:10473C0097A22685EFF05F9F19E12300090003552E
:10474C004400EF90F04B9147631FF500B727002012
:10475C00938787BF8356440003D767006395E600B1
:10476C007D572393E700F2406244D2444249B24958
:10477C000561828081499304F00F79BF9307F00F94
:10478C00E38FF4FA83466400035644000345240087
:10479C004E87A6852D3E65B779715EC6AA8B2E8590
:1047AC0052CC56CA5AC806D622D426D24AD04ECE9D
:1047BC00AE8A328B368AEF90D0227DC1045D2A8975
:1047CC00E5C09C50614599C3130540039C5481C7B7
:1047DC0051054205418163050A007105420541817D
:1047EC00DC5081C75D0542054181EFD06FCE2A8434
:1047FC0045C96146814597C0FB1FE780C0A8B72714
:10480C00002083C987C46394090083490900930776
:10481C0000FD2300F400A947A30074012301F40058
:10482C00230364018C50231254011305840191C994
:10483C0008C47146930A440397C0FB1FE780809D10
:10484C0056858C5491C948C45146930A450197C06A
:10485C00FB1FE780209C5685630C0A0008C8714634
:10486C00D285930AC50197C0FB1FE780A09A568595
:10487C00CC5099C548C85D4697C0FB1FE78080990E
:10488C00A2854E85EFD0CFD32254B2509254F24928
:10489C00624AD24A424BB24B4A850259456191B3A6
:1048AC00B250225492540259F249624AD24A424BB3
:1048BC00B24B4561828001114EC6AA892E854AC829
:1048CC0006CE22CC26CA2E89EF90B01121C9B7276B
:1048DC00002083C487C499E0834405001945EFD0B8
:1048EC002FBF2A8405CD8145194697C0FB1FE78051
:1048FC008099930700FD2300F400B947A30034010D
:10490C002301F40023122401A2856244F24042499F
:10491C00B2492685D24405616FD08FCAF2406244F9
:10492C00D2444249B2490561828039715ECEAA8B6C
:10493C002E8526DA4ED652D456D25AD006DE22DC3A
:10494C004AD8AE84328BB68A3A8ABE8942C6EF9078
:10495C00500921CD2A894145EFD08FB72A8431C522
:10496C004146814597C0FB1FE780E091B7270020A7
:10497C0003C587C419E103450900930700FD230013
:10498C00F400BD472301F400B247A30074012312C5
:10499C00940023046401A304540123054401A305DA
:1049AC0034015CC4A285EFD0AFC1F2506254D25432
:1049BC004259B259225A925A025BF24B21618280BF
:1049CC00797126D2AA8439454AD04ECE06D622D445
:1049DC002EC6B2893689EFD0AFAF21C1B24593074D
:1049EC00000D2310F500B1472A842312B5002301D2
:1049FC00F500CE851905194697C0FB1FE78080810D
:104A0C0023062401A2852254B2500259F24913F50F
:104A1C00F40F925445616FD0AFBAB25022549254F5
:104A2C000259F24945618280411126C2B724002007
:104A3C00938484BF03C7340006C622C44AC09307BC
:104A4C00F00F630CF7042A893945EFD06FA82A843C
:104A5C0029C5930700FDB72500202300F500A3000E
:104A6C00250123010500938505C10D05194697B055
:104A7C00FB1FE780207A83D78400A28503C534000E
:104A8C002315F40083C714002306F4002244B2401B
:104A9C009244024941016FD0AFB2B24022449244D9
:104AAC0002494101828001115AC02A8B314526CA24
:104ABC004EC652C456C206CE22CC4AC8AE84B28A66
:104ACC00368ABA89EFD0CFA03DCD2A842685EF90C7
:104ADC00407111C50347C500A1476314F704B727FC
:104AEC00002003C9B7BF930700FD2300F4009D47C6
:104AFC00A30064012301F400231294002313540136
:104B0C002314440123153401A2856244F240D2449B
:104B1C00B249224A924A024B4A85424905616FD0FA
:104B2C002FAAB727002003C9D7D5E31E0BFAB72746
:104B3C00002083A787AD9C47DDD7CE865286D685CD
:104B4C00268582974DB7F2406244D2444249B2491D
:104B5C00224A924A024B05618280011122CC2A849E
:104B6C00214506CE2EC6EFD0AF9621C1B245930794
:104B7C0000FD2300F500C5472301F50083C7350070
:104B8C00A301F50083D745002312F50083C7650008
:104B9C002303F50083C77500AA85A303F5002285BE
:104BAC006244F24005616FD0AFA1F24062440561EE
:104BBC008280397162CC2A8C594526DA4AD84ED675
:104BCC0052D456D25AD05ECE06DE22DCAE8432C629
:104BDC0036C4BA8B3E8BC28A468A83590104034978
:104BEC004104EFD0EF8E25C93246930700FDA24653
:104BFC002300F5009547A301C500A30085012301FF
:104C0C00F5002A8419461105A9C2B68597B0FB1F79
:104C1C00E780406023066401230A240123157401F4
:104C2C00231754012318440123193401A28562541B
:104C3C00F2504259B259225A925A025BF24B624CD0
:104C4C002685D25421616FD0AF97814597B0FB1F59
:104C5C00E7806063C1B7F2506254D2544259B259E2
:104C6C00225A925A025BF24B624C216182804111B2
:104C7C0022C437240020130484BF8347240006C6B3
:104C8C0026C28DCBB7240020AA851946138504A013
:104C9C0097B0FB1FE780005803452400938504A0C0
:104CAC00EFF03F8D2244B240138504A092444101A1
:104CBC006FD0503FB2402244924401454101828062
:104CCC00411126C2B7240020938784BF06C622C494
:104CDC004AC003C737009307F00F938484BF630463
:104CEC00F7042A892945EFC0BFFE2A840DCD93070E
:104CFC0000FD2300F500A147A30025012301F500C9
:104D0C0083C72400B7250020938505A0A301F500D7
:104D1C001946110597B0FB1FE780C04F03C534003F
:104D2C00A285EFD0EF8903C724008D476311F702EA
:104D3C00B727002083A787A199CB03A3870063081B
:104D4C0003002244B2409244024941010283B24022
:104D5C0022449244024941018280797122D406D6C0
:104D6C0026D24AD04ECE52CC56CA09445DCD2A89A1
:104D7C0003550500AE895144EF90A046AA8455C551
:104D8C0037270020930787D583C747008546BA8A03
:104D9C00FD1793F7F70F494463F9F6080347C5006D
:104DAC00A1476314F700639209089C5C4544B5EF76
:104DBC009165938545711305C00297B0FB1FE78081
:104DCC00A02788DC2A8A4D442DC11306C0028145D8
:104DDC0097B0FB1FE780204B8357090093064A00CE
:104DEC0036852311FA0071469305490036C697B0F3
:104DFC00FB1FE780204289472300FA0003C5C4004B
:104E0C00B2460356090083C58AD5611513351500C2
:104E1C00EFA0A06F2A8463860900CE852685EF90CB
:104E2C00F04C01C42685EFF0CFFB2285B250225402
:104E3C0092540259F249624AD24A45618280B7279C
:104E4C00002083C7C7D50547FD1793F7F70F637885
:104E5C00F708894751C6011122CC26CA4AC84EC64A
:104E6C0052C406CEAA89368AB2842E89EF90603756
:104E7C002A84D14729C9485509C597B0FB1FE7803B
:104E8C00E029F1452685EFD0AF9448D4CD4705CD28
:104E9C008346C40021478147639FE600630D0A00E7
:104EAC000347A5010356050193062501AA854E85E6
:104EBC00EF90704BAA8703474400630F09001367F8
:104ECC0067002302E400F2406244D2444249B249F2
:104EDC00224A3E850561828013674700DDB7C947CA
:104EEC003E8582809307000463EBA700B727002060
:104EFC00938787C106053E95035505008280416561
:104F0C007D158280011122CC2A842E8526CA06CEDC
:104F1C00AE84EF90002D1DCDB7470F009387F7237C
:104F2C00094563E4870281450A85414697B0FB1F1A
:104F3C00E7806035A685231081000A854180230116
:104F4C008100A3010100EFA0C03BF2406244D244B7
:104F5C00056182804945D5BFB7270020238DA7D492
:104F6C0082806FA0A054797152CC2A8A328522D4C7
:104F7C0026D24AD04ECE56CA5AC85EC606D662C48F
:104F8C00AE8BB28A368BBA843E89C2894684EF9046
:104F9C00402515C92A8C63140A0213774B008347EA
:104FAC00450015CF93E727012302FC008DEC631C11
:104FBC000902639A090205E8ED9B2302FC00832B8E
:104FCC008C03639F0B06B250225492540259F2493F
:104FDC00624AD24A424BB24B224C45618280F59BCD
:104FEC0093E70701D1B793E747002302FC0001CCFC
:104FFC001C484146A2852324FC0213058C0197B062
:10500C00FB1FE780202163910B02D5D80325CC022E
:10501C0009C597B0FB1FE7806010F1452685EFC0EE
:10502C003FFB2326AC0261BFE30B09F80325CC023E
:10503C0009C597B0FB1FE780600EF1454A85C5B7DF
:10504C009DC483A70B0299EB9165938535717145CE
:10505C0097B0FB1FE78040FE23A0AB0203A50B0219
:10506C0019C57146A68597B0FB1FE780A01A638807
:10507C00090283A74B0299EB9165938525715D45D8
:10508C0097B0FB1FE78040FB23A2AB0203A54B02AA
:10509C0019C55D46CE8597B0FB1FE780A0171DC4D0
:1050AC0083A78B0299EB916593851571514597B048
:1050BC00FB1FE78060F823A4AB0203A58B0219C584
:1050CC005146A28597B0FB1FE780C0142254B25002
:1050DC009254F249B24B224CCA865A860259424B20
:1050EC00D6855285D24A624A45616FF0EFEA0111CA
:1050FC0026CA52C406CE22CC4AC84EC62A8AAE84D0
:10510C00EF90200E25C5AA893945EFC07FBC2A84B3
:10511C0031CDB727002003C987C46314090003C924
:10512C0009009307000D2310F400AD472301F40090
:10513C009385690013053400194697B0FB1FE7806F
:10514C00600D93F71400858085882306F400A30670
:10515C00940023154401A2856244F240D244B24922
:10516C00224A4A85424905616FC09FC5F24062449C
:10517C00D2444249B249224A0561828001114EC68D
:10518C0052C456C206CE22CC26CA4AC8AA8A2E8A35
:10519C00B289EF9000052DCD2A891305C002EFC00E
:1051AC003FB32A8435C5B727002083C487C499E050
:1051BC00834409009307000D2310F400E9472301F1
:1051CC00F4009305690013053400194697B0FB1FD2
:1051DC00E7804004D285231554011305C4004146D1
:1051EC0097B0FB1FE7800003CE851305C401414631
:1051FC0097B0FB1FE7800002A2856244F24042494F
:10520C00B249224A924A2685D24405616FC05FBBDF
:10521C00F2406244D2444249B249224A924A056160
:10522C008280411122C437240020130484A008403A
:10523C0006C619C597B0FB1FE78040EE232004007B
:10524C00B240224441018280011106CE22CC26CAF2
:10525C004AC82EC6EF80F07839CDB245B72700206A
:10526C0003C987C40CD5AA8463140900034905003B
:10527C004145EFC0FFA52A841DCD9307000D2310D7
:10528C00F500A5472301F50083C7540093856400FE
:10529C001105A30FF5FE194697B0FB1FE78080F7A9
:1052AC009C54A285F2405CC46244D2444A85424973
:1052BC0005616FC0FFB0F2406244D24442490561BF
:1052CC0082801D71A2CC86CE2A842EC6EF8070718E
:1052DC0005CD8346C5001147AA8749456392E6026E
:1052EC009C5FB24599C383C56701B70605002308C7
:1052FC00B1009386E64E100889452285EF90C07563
:10530C00F6406644256182805145DDBFB7270020F9
:10531C0083C7C7D50547FD1793F7F70F637AF704D3
:10532C00894721CA411122C426C24AC006C6B2848A
:10533C002E89EF80106B2A84D14705C563080900BC
:10534C008347450093E727002302F5004146A685D5
:10535C001305840197B0FB1FE780C0EB9C481CD45D
:10536C008147B2402244924402493E8541018280E9
:10537C00C9473E858280797122D406D62A842EC6EE
:10538C00EF80306601CDB2452285230EB1006C084A
:10539C00EF904072B2502254456182805145DDBF7E
:1053AC006F80D07AC1671387E7FF6395E502B72753
:1053BC00002083A747A191EB494582804945B24023
:1053CC002244924402494101828003A30700E30571
:1053DC0003FE0283411122C426C24AC006C6FD1731
:1053EC002A892E84B284639AF502B727002083A7FA
:1053FC0047A191CF9C4381CF829711E9B727002019
:10540C00238427A3B7270020A38497A24DBFA6858A
:10541C004A85EFE07FD145F5D5B72E85EF80705CDE
:10542C0051DD834705000D45E39B27F92285224476
:10543C00B2400249A685924441016FD0A043930724
:10544C00000463E2A7064111C16722C406C626C246
:10545C00FD172A8409456382F502C547AE846313A0
:10546C00F4022E85EFD0C04837250020130585C1E6
:10547C0006042A94231094000145B240224492441D
:10548C00410182809307A0036316F4002E85EFD0B0
:10549C00203FD9BF9307B003E318F4FC13F5F50FC5
:1054AC00EFD0403ED1B709458280411106C622C4D7
:1054BC0026C237240020AA84EFE03FC9EF204075B4
:1054CC00EF103016EF60920C130584BF8145130664
:1054DC00000297B0FB1FE78000DB130484BF930727
:1054EC0000F02311F400B7270020138787D5FD5651
:1054FC002301D700230204002244238C97D4B2400A
:10550C0026859244954541016F70C0585971939707
:10551C000501CAD086D6A2D4A6D2CECED2CCD6CABB
:10552C00DAC8DEC6E2C4E6C2EAC06EDEC1872E89E6
:10553C0063D40756B724002003C584D5B7290020AF
:10554C00372B0020EFC0CFFF2A8426CCB72A0020AF
:10555C00372C0020938489BFB72C00201DE02165D7
:10556C003345A900B650265496540659F649664A56
:10557C00D64A464BB64B264C964C064DF25D6561B1
:10558C008280834704001307200A639CE70003CA48
:10559C00340003552400C1652286FD15EFF0EF8F12
:1055AC008DA26247130787D5034A270013071009FA
:1055BC006395E716834714001547639FE700228520
:1055CC00EFF06F922285EFC08FEBE24703C587D5D2
:1055DC00EFC00FF72A8459B739476398E71603557C
:1055EC0044008567A5076315F5040C4483CB0500BF
:1055FC00639D0B00850591C93725002019461305BD
:10560C0005C197B0FB1FE780E0C003C789BF854782
:10561C006315F71063880B00238C09BE5E85EFF0D1
:10562C00AFC04DB78947238CF9BEEFD0602759BF67
:10563C00896713872700631CE504832B8400638E22
:10564C000B0C83C70B0089EF83C72B0003C71B0010
:10565C00A207D98F2394F40083C73B00A380F400E6
:10566C0003C789BF8947631AF70A83C70B0091C721
:10567C00238C09BE03C50B005DB783C5140003D58D
:10568C0084008D47238CF9BEEF70C043E5B79507B6
:10569C006318F5001C4403C50700EFF06FE21DB75B
:1056AC00F9771387A7FF2A9742074183914663F145
:1056BC00E6049387A7FCAA97C207C183714763715D
:1056CC00F70289671387B7006310E50483A70AA163
:1056DC00E38A07EE9C43A285E38607EE829715A02A
:1056EC00370700181307F770B357F700858BA1CB5A
:1056FC0083278BA1E38807EC9C43E38507EC228589
:10570C008297E31105EC11A81387C7006310E5021B
:10571C001C4483C70700E38707EA9307F00FE303F2
:10572C00FAEAA2855285EFC0AFE945B5B90763180F
:10573C00F50083A74CA1E38707E8DC4369BF8967C1
:10574C0093871704E304F5F8C9BF3D476399E70451
:10575C000355440089671387D700E30CE5FC1387D6
:10576C009701E308E5FCCD07E319F5FA03D76400CC
:10577C00C167FD17631DF70083A74CA1E38407E401
:10578C00DC43E38107E40965A2854D0581BFB7279A
:10579C00002083A7C7A1E38707E29C43DDB713076B
:1057AC00E003E39CE7F68347240005476398E70E84
:1057BC008347640037270020930D87A0E1E783A778
:1057CC000D00D5CF83CB0700214A03457400130D80
:1057DC008400EA85EFE07FDE83474401A303A40045
:1057EC00835804010358E400035744002A860345F8
:1057FC0034003EC283572401EA86DE853EC0D28740
:10580C00EFF02FBB8347340095E7DD478358040145
:10581C000358E40083467400835544003EC283570A
:10582C0024016A873EC0D28705465E85EF805054BE
:10583C00A301A40083A70D0081C71145EFF07F9E43
:10584C00930B8CA203C50B00E30E05D6B7270020E3
:10585C0083C597A2EFE05F8DE30605D6834634003F
:10586C0093071003638AF6000356440083C50B00AC
:10587C0052873685EFE0BFA523040CA2A1B383CBDE
:10588C00340099B783278BA183CB3400114A95DF61
:10589C00DC4385DF81450145829705BF2947639825
:1058AC00E70A8347640037270020930D87A0A5EFF4
:1058BC0083A70D00B5C783CB0700214A03457400AD
:1058CC009306840093772500BDCB13761500130344
:1058DC004401834704028358C4010358A4010357AD
:1058EC004400034534003EC28357E401DE851ACEE2
:1058FC003EC0D287EFF0EFAB8347340072439DFB81
:10590C00DD478358C4010358A401834674008355B2
:10591C0044003EC28357E4011A873EC0D28729B7A0
:10592C0083CB340059BF83278BA183CB3400114A1E
:10593C00D1D7DC43C1D781450145829741B7B685A4
:10594C0036CEEFE09FC7F2462A86368359B7094711
:10595C00639CE70083A70AA1E38607C6DC43E383C5
:10596C0007C622858297B9B92D476398E70083A7AC
:10597C000AA1E38907C49C47DDB70D476397E7008D
:10598C0022868D450355440011B919476395E706E6
:10599C009305610213051031EF60E2472C101305DB
:1059AC002031EF6042470356640083578102035550
:1059BC00440063E8C700835684000357610263F711
:1059CC00E60093050002EFC0B071EDBE6374E60013
:1059DC002313E40063F4D7002314F4000357C4002A
:1059EC008356A40003568400835564000148814704
:1059FC00EFC0D06EC1BE1D47E381E7D2314763953E
:105A0C00E7002286B145BDBF35476398E70083A701
:105A1C000AA1E38907BADC4799B739476396E700CF
:105A2C002285EF00F00779BE3D476398E70083A716
:105A3C000AA1E38907B89C4B1DB741476396E70061
:105A4C002285EF001011BDBE45476396E700014566
:105A5C00EF00902085BE4947639DE70083278BA10B
:105A6C00E38D07CADC43E38A07CA81450545829763
:105A7C006DB14D47639CE70083278BA1E38F07C86B
:105A8C00DC43E38C07C8A2850945D5B76147E3968B
:105A9C00E7C82286E145FDB593F7150089CFB727F6
:105AAC00002083A707A189C7DC4399C301458297CE
:105ABC001345190045BC93F7250091CFB72700205B
:105ACC0083A787A191C7DC4381C781450545829790
