:10C000006F0062720000000000180118002801286B
:10C0100002280328002901290229032904290529C6
:10C02000062907290829002A012A022A032A042AA4
:10C03000052AA62A80CE02009EDE0000D40200203F
:10C040003E030020C00200208E0200201C020020BF
:10C0500086E00000CEE0000074E2000000E5000091
:10C06000ECE50000FCDC0000BADB00007CDC00003A
:10C070000CDC0000DCEB0000CE0400205CE00000E3
:10C08000A8E800001A840200128602008A860200D4
:10C0900098440200CC440200A0FA0100E0EF010045
:10C0A000CE7D0200DEE80000364C0200568B010017
:10C0B000E48B01003C8C01007CF40000C8F400001B
:10C0C00032F300007E4701003842010014510100A4
:10C0D000E4540100905801006A3401000834010062
:10C0E000F0370100B6340100DE3301006234010094
:10C0F000903301003A3501009235010042350100CC
:10C1000046350100E03501009A350100CC350100CB
:10C11000E63A0100EA3A0100363501003E350100F9
:10C12000DE350100E83A01008E360100583C01007E
:10C13000D86601005667010094670100E2490100DA
:10C14000FA490100364A0100422E0100602F010029
:10C15000D62F010052130100F80D010058240100F0
:10C16000760E0100BC1F0100C0AE020038A702001D
:10C17000F4AB02002CC3020012C202009EC50200F2
:10C180008EC5020096C50200D6C50200A89802001E
:10C19000000000000000000000000000000000009F
:10C1A00046C602000EC00200C4BF0200000000002C
:10C1B000000000000000000000000000000000007F
:10C1C00038670200CE5402006E5802002C5602005E
:10C1D000B66002009E7E02006C7D0200DC980200C8
:10C1E0007AED000008460200164C02000E4D0200D7
:10C1F000000000000000000000000000DE4D010013
:10C2000010660200000000000000000000000000B6
:10C210007E540200DE060020F4460200C2C5020081
:10C22000000000000000000092C502008CE4000045
:10C23000344B0100CAC502002E680200FC680200EF
:10C24000766902005AAC0200C6C50200CEC50200E3
:10C250006CEF0100D2C502002A110020FC1700205B
:10C260003AAC0200E0AD0200DE6602000000000011
:10C2700000000000000000000000000000000000BE
:10C280006373B60082801C419105110523AEF5FE53
:10C29000C5BFB727002037270020938707951307CE
:10C2A000C7EC6373F700828023A007009107D5BF16
:10C2B0004111B7E700E022C480433707200006C6DB
:10C2C000798C23A0E7180F10000011C199E5B7E79A
:10C2D00000E023A08710014545A893073500C20759
:10C2E000C183F19BC207C183130740036366F70252
:10C2F00037270020032507A737270020832687A696
:10C300006391A60237270020032707B069D3C2072D
:10C31000DD8D0545029765BF372700200325C7A699
:10C32000E1BF035765002DE7035745006362F70639
:10C33000B72600203306F7402148938686A7637806
:10C34000C8028328050003D86600138687001D8F66
:10C350002A9661172312E6002320160123130600F4
:10C3600010C12312F500130788FF2393E60023135F
:10C37000B50083D566002105B387F5402393F60009
:10C38000B7E700E023A08710B24022444101828039
:10C390000841BDB7B7E700E003A807003707200052
:10C3A00023A0E7183378E8000F10000001E523A070
:10C3B00007118280B727002003AE07A7B727002008
:10C3C00003A387A68146F28763FC670A83A8070058
:10C3D000636BF50A63E9A80A138787006362E50ABD
:10C3E00003D66700216705076319E600372600209A
:10C3F0000347469D0507230AE69C372600201305C0
:10C4000086A783D5470003576500239307001306CB
:10C4100086A72E97420741832313E5006387C7034E
:10C42000372500200325C5A66301F50203D5660064
:10C4300009ED83D7460023A016012107BE95A1056B
:10C440002392B6002313E600B6879843630A670277
:10C45000B726002083A6C6A66304D70283566700CA
:10C4600085E283D64700835547001843A106AE9660
:10C470002392D70098C383576600A1072313F600C1
:10C48000B7E700E02DB7BE86C6873DBFB7E700E03F
:10C490009843B706200023A0D718758F0F1000000F
:10C4A00001C599C1814711E6B7E700E023A0E71075
:10C4B0008280B386F50003C80600B306F500850741
:10C4C00023800601E317F6FEC5B737E700E01C43FB
:10C4D000B70620002320D718F58F0F10000019C1D0
:10C4E00091C111E637E700E02320F7108280910523
:10C4F00003A7C5FF11057D16232EE5FEDDB737E73F
:10C5000000E01C43B70620002320D718F58F0F103A
:10C51000000001C53307C50011E637E700E023201E
:10C52000F71082800505A30FB5FEE31DE5FEF5B704
:10C5300081473307F5000307070019E33E85828032
:10C540008507C5BF37E700E01C43B706200023205E
:10C55000D718F58F0F10000001C599C1014711EAE6
:10C5600037E700E02320F710054582800507E3093F
:10C57000E6FE3308E500B386E5000348080083C6FD
:10C580000600E305D8FE37E700E02320F710014559
:10C5900082809307F6FFBE952A966313C5008280BA
:10C5A000FD1583C715000505A30FF5FEFDB7AA8786
:10C5B000014581CF09CE3E96850703C7F7FF631774
:10C5C000B700E39BC7FE05458280828001458280DB
:10C5D00079714AD03729002022D40324C9AC06D669
:10C5E00026D24ECE52CC56CA5AC85EC662C45DC46C
:10C5F000372A0020B7290020B7240020814BB72A12
:10C60000002037CBC901130A0AAD938989A7938407
:10C61000C4B18357240099EF5C44639A0B0023262E
:10C62000F9AC032CC4002285B5336284A9A823A6E3
:10C63000FB00C5BF83A74AAC82971C443307F54073
:10C640006375F500D8401D8F2A979306FB3763EB7F
:10C65000E60623A80900835524000345040097E05B
:10C6600000E0E78080C95C405844A9C70C44D04032
:10C67000AE97BE8663E4B70063E4C700B386C740E5
:10C6800014C4A28B3A8451F4B7270020938787A75C
:10C69000984B894663FBE606791798CBB250225433
:10C6A00092540259F249624AD24A424BB24B224C4E
:10C6B0004561828063950B002326E9AC9DB723A6D4
:10C6C000EB0085B703274A021DCB63EDA702338534
:10C6D000A7408347040091EF03477A01D4405917DC
:10C6E000B307A7003E8563E4E70063E4D700338522
:10C6F000D74083A709016374F50023A8A900A28B82
:10C70000404451B7D840BA97D9B723A8070079B7A2
:10C71000B727002003A747B1411122C406C63E84B3
:10C7200011C30297B727002083C727AC93F7F70FF1
:10C7300099E3232A04B0B2402244410182800111CE
:10C740004EC6B729002083A749AA06CE22CC26CA06
:10C750004AC852C456C281C7829723A209AAB724E5
:10C760000020938744DC83C757003724002093843C
:10C7700044DC858B130444AA81CF83C77400194716
:10C780006316F70EA3820400EF0090675C44829763
:10C790001C4491C382973724002037290020930737
:10C7A00084A7032789AC03C61700130A84A783470D
:10C7B00084A793961700BA9683D60600F9C28347DA
:10C7C00084A763E8C70C83A749AA230C04A6639433
:10C7D0000712B727002083A747AC638E0710B7273F
:10C7E000002083A707B22328FA00DD3383C7B400F3
:10C7F0006393071083C7940081CF83C7740093F7B6
:10C80000F70F99E7A3840400974002E0E7806038BF
:10C81000B727002083A747AFF9CF83270A01E1CFCD
:10C8200083C7740015476368F70CB7270020938708
:10C8300007E183C7C700918BDDEFB727002083C7CF
:10C8400027AC93F7F70FC5EB83461A00032689AC94
:10C8500063CCD70A6244F240D2444249B249224AE8
:10C86000924A056117E300E06700830783C77400FD
:10C870001D47E31FF7F0A3820400EF0070581C4827
:10C8800039B7850793F7F70F230CF4A6E3E1C7F256
:10C890003DB786073E9783550700231007000345E1
:10C8A00084A7B727002083A707AA13172500B72A54
:10C8B0000020BA979C4323900AAC829783D70AAC96
:10C8C000034784A793C7F7FF7D8D931717000327AE
:10C8D00089AC3E97835707005D8D2310A7008347DF
:10C8E00084A781C78507230CF4A6034784A7834741
:10C8F0001A00E37AF7ECF2406244D2444249B2496A
:10C90000224A924A05618280139717003297035793
:10C91000070075F385072DBF37C700408326C72062
:10C92000B707FCFFFD17F58F2326F7200100010054
:10C93000B7270020938787A7C84F832787262326FA
:10C94000D7206A0593C7F7FF99835D8D8280B7274B
:10C95000002003A307B36303030002831305F00F52
:10C96000828003278511630207120346E50485468A
:10C97000630E0610411122C406C68347C5002A84EF
:10C9800093F7C70F2306F500834597000358C700A8
:10C99000139585016185637F060763580506034586
:10C9A000870093F5F507A304B70093E52700631408
:10C9B000D50093E517002306B4005C4389075CC3E8
:10C9C000A30AC400032504114C430905C13483277D
:10C9D000841103465401D44303D7C700B296118F84
:10C9E000D4C32396E7008947A30DF400B72700209E
:10C9F0000347640383C727AE6377F7048347C40004
:10CA000093E707012306F4003DA893E717002306E8
:10CA1000F4007DB71376F80F635D050203458700C8
:10CA200093E527006314D50093E517002306B400AF
:10CA3000A30AC400A30407008547A30DF4008327BD
:10CA400084119C43C5F7B24022448146368541019A
:10CA5000828093E717002306F400A30AC400A3040E
:10CA60000700032504114C4342860905053483273A
:10CA7000841103465401D44303D7C700B296118FE3
:10CA8000D4C32396E7008D474DBF85463685828007
:10CA9000B727002083A7C7DA411122C406C6858BB9
:10CAA0002A84DDEB4165130525F5970002E0E78058
:10CAB00060085DC18347A5002315F5008327041294
:10CAC000B5E72320A4122322A41285472311F404DE
:10CAD000232005008347640154412316F5000347D2
:10CAE000D4002304E5000547A304E5003727002010
:10CAF000032787DE1385170215811C437D151375E7
:10CB0000F50F9CC25C43DCC21C479CC65C47DCC67C
:10CB10001C4B9CCA5C4BDCCA1C4F9CCE5C4FDCCED1
:10CB200019CD9386060213070702C1BF832744125B
:10CB300088C3835724042322A412850741BFB72743
:10CB40000020938787C803D7870005072394E70051
:10CB5000B2402244410182808347C400230904007B
:10CB6000054593C747002306F400DDB783478501D9
:10CB700093F7E70FDDEB83479501C5EB03462501EE
:10CB80008346C50009CA372700208345650303474C
:10CB900037AE63E7E50013F7060149CB014709C645
:10CBA000C18A0357E51881C68356251936973DCFAC
:10CBB000B727002003D547B21307C71237460F0027
:10CBC000B335A702411113060624814622C426C2AA
:10CBD00006C67D543305A70297C002E0E780E0E275
:10CBE000B727002083C777AEB384A700B7270020FC
:10CBF00003A787D18327070963F387003E8418437F
:10CC000075FBB727002083A747AC829781476364F1
:10CC1000A400B307A440B2402244B3B7970093C71F
:10CC2000170092443E854101828081473E85828083
:10CC3000B727002003A7C7DE3C5BFDFF0100010012
:10CC40008280011122CC4AC84EC606CE26CA52C4E2
:10CC500056C25AC00347B50085472A842E898329C6
:10CC60000509631BF72483570508835AC503372A30
:10CC70000020130ACAB163F7572183460501639365
:10CC8000E62003278511631F071E0327450A631B40
:10CC9000071E8346F5001D476396E61E03471401F1
:10CCA000B38AFA4013950A01418121CF9377170087
:10CCB00099CB8357E40583560404958F63D5A70069
:10CCC0001395070141819377270099CB8357E4128D
:10CCD00083560404958F63D5A700139507014181FE
:10CCE0009377070199CB8357C41483560404958F17
:10CCF00063D5A700139507014181218B11E311E151
:10CD000005450357A4039307204E832444093305A4
:10CD1000A702035B8A0037460F00814613060624EC
:10CD20003305F502B727002083C767AEB3549502D9
:10CD3000B335AB02BE94C204C180231394083305FB
:10CD4000AB0297C002E0E78040CCB307350133B5B2
:10CD5000A7002E953E8783264A0019E163E4D70099
:10CD60003387D740B3846403B7460F009387F62315
:10CD7000938606242320E900A697B3D7D702D69737
:10CD8000636CF70E1D8F2320E900B729002083A7CD
:10CD900049AC83240900829763E3A4123385A4403D
:10CDA0006350050C83A749AC372B0020130BCBB184
:10CDB000829703270900636AE510198D8357E403FE
:10CDC00003578B008E07B387E70213070032938760
:10CDD0000719B3D7E70263EFA70E374A0F00930A8C
:10CDE000FA23130A0A248357040485072310F40442
:10CDF0008347041499E32285AD2A228597F001E048
:10CE0000E78040FA6DE5832604098327C4080327D9
:10CE10004B00B6973E8563E4D70063E4E7003385B3
:10CE2000E7408347F401835464082328A408850756
:10CE3000A30FF40083578B00B384F402D694B3D4C9
:10CE400044036365950CB304954083A749AC232044
:10CE50009900829763E0A40C3385A440E34505F86C
:10CE6000B727002083C777AE63E4A708B727002061
:10CE700023A087D20145ADA883264A00B387F64098
:10CE80003E9711B783578A0003576408B7460F00CF
:10CE90003307F7029387F6233E9793870624B35709
:10CEA000F70263E7F900B387F9402320F900F1BDE9
:10CEB00003274A00BA99C5BF23A03501F9B5B727A2
:10CEC000002083A707B2BE94D1BD83274B00998F62
:10CED0003E95EDB5A145228597F001E0E780A0E5FC
:10CEE000A305A402B727002083A707B081EF7D55D3
:10CEF000F2406244D2444249B249224A924A024B29
:10CF000005618280894515458297D5B7B30497405E
:10CF1000AA9425BF83274B00BE943DBF31C90111A0
:10CF20006C0022CC06CE2A84293B15CDFD57630226
:10CF3000F50237270020B247834577AE63EFB7008D
:10CF400003459402B385B7402EC697D000E0E78032
:10CF5000C051F240624405618280372700200327D8
:10CF600007B2BA97F1BF97F001E0E7802071D5B71B
:10CF70008280797126D206D622D44AD04ECE52CCA7
:10CF800056CA5AC85EC68347550303447513AA841C
:10CF90003E941374F40F9307400263F68700130462
:10CFA000B4FD1374F40F03AA841383AAC413A38BD0
:10CFB000841222865285D68597C002E0E78020A29F
:10CFC000058915E503CBD41201498149337B6403FC
:10CFD000930B50024A865285D68597C002E0E780BF
:10CFE00000A0058915C5639169031374F90F238B9C
:10CFF0008412B250225492540259F249624AD24ADF
:10D00000424BB24B456182808509E20993D989413F
:10D010000509E31179FDE1BF83278509035605045E
:10D02000797193D60701BD8EC206C182358E135722
:10D03000764093575640898B058B5D8F93573640CA
:10D04000918B5D8F93571640A18B5D8F93171600C0
:10D05000C18B5D8F9317360093F707025D8F93178F
:10D0600056009355860093F707041E065D8F1376CE
:10D07000F60F518F93D7554013D63540118A898BBF
:10D08000D18F13D67540D18F13D61540218AD18FF9
:10D0900013961500418AD18F139635001376060238
:10D0A000D18F13965500137606049E05D18F93F504
:10D0B000F50FCD8FA20745465D8F3307C70222D4F7
:10D0C0002A8426D252CC56CA032A8413832AC41334
:10D0D0005AC806D63697420741839357774013556F
:10D0E00057400989858BC98F135537401189C98FDE
:10D0F000135517402189C98F131517004189C98F0E
:10D100001315370013750502C98F13155700935572
:10D110008700137505041E07C98F1377F70FD98F82
:10D1200013D5354013D755401189098B498F13D535
:10D130007540498F13D515402189498F13951500E6
:10D140004189498F1395350013750502498F139551
:10D150005500137505049E05498F93F5F50F4D8F06
:10D160002207D98FB387C7024AD04ECE5EC662C4AB
:10D17000B697C207C18313D7774013D557400989A3
:10D18000058B498F13D537401189498F13D5174027
:10D190002189498F139517004189498F13953700CD
:10D1A00013750502498F1395570093D587001375A2
:10D1B00005049E07498F93F7F70FD98F13D5354094
:10D1C00013D755401189098B498F13D57540498F65
:10D1D00013D515402189498F139515004189498F31
:10D1E0001395350013750502498F13955500137576
:10D1F00005049E05498F93F5F50F4D8F2207D98FB2
:10D20000B387C702130650025285D685B697BD8EE6
:10D2100093940601C18033F6C402137BF60F97B0D6
:10D2200002E0E780C07B05890DED8347D4120149F8
:10D230008149B3849702130C5002C1804A865285FB
:10D24000D68597B002E0E78080790589937BF90F56
:10D2500011C563863403850993F9F90F0509E31FA6
:10D2600089FD230B6413B250225492540259F2499F
:10D27000624AD24A424BB24B224C456182805E8B5D
:10D28000CDB70111B727002022CC03A487D426CA2A
:10D290004AC84EC606CEAA8413092500854915C082
:10D2A00083C7140003473400858B6304F700405C98
:10D2B000FDB71946930544004A85EFF0AFA8E3187F
:10D2C00035FF2285F2406244D2444249B2490561A9
:10D2D00082804111B727002022C403A487D426C22C
:10D2E0004AC006C693042500054901E82285B240DC
:10D2F00022449244024941018280A6851305A4027A
:10D30000972002E0E78080B2E30225FF405CF1BF96
:10D310004111B727002022C403A487D426C24AC0E3
:10D3200006C693042500054901E82285B24022443F
:10D330009244024941018280A6851305A4019720E9
:10D3400002E0E780A0AEE30225FF405CF1BF0111DF
:10D35000B727002022CC03A407D426CA06CE2AC4AD
:10D360002EC6854419E40145F2406244D244056169
:10D3700082808347910003471400858B6304F70084
:10D380000044CDB719469305A10013052400EFF022
:10D390006F9BE31795FE0545C1BFB726002003A785
:10D3A00006DC01114AC81C5F4EC606CE998322CC0A
:10D3B00026CA858B3689B7290020ADCF9307000692
:10D3C000372400201CDF930744DC83C76700130762
:10D3D0000008930444DC6319F70083A7C9DB9C436E
:10D3E00093F707042383F400834744DC93F707048F
:10D3F00089CFB727002083A747AC8297C8CC834743
:10D4000044DC93F7F70B2302F4DC83C7440093F763
:10D4100007048DE38547A382F400B727002083A784
:10D42000C7DE3707020098C7130700FC2382E40019
:10D430009848F8D3032709DC1C5F9183858B95C33B
:10D440001C5F93E707011CDFB727002083A7C7DE17
:10D45000054723A20706B7270020938747DC2382CE
:10D46000E70083A7C9DBD8430583058B19C7D843D9
:10D47000759BD8C3D843799BD8C3F2406244D24449
:10D480004249B24905618280093F730020309317F9
:10D49000D50063DF0700B727002083A7C7DE7D57CD
:10D4A000B8D7B7270020938787A7D84F0507D8CFCD
:10D4B0009377850085CBB7270020938747DC03C788
:10D4C0002700136717002381E700130700F8238262
:10D4D000E700B727002003A707DC5C57F19B93E721
:10D4E00017005CD79377150085C7B727002093876F
:10D4F00047DC03C7170013671700A380E700B727AF
:10D50000002003A707DC5C57F19B93E717005CD76B
:10D51000937765008DC713774500B727002059CF53
:10D5200003C747DC136717002382E7DCB727002017
:10D5300003A707DC5C57F19B93E717005CD79317B1
:10D54000F50063D20702B7270020138787C88346F8
:10D550000707938787C8C18ABDCA8347070793E730
:10D5600007022308F7069317E50063D60702B727DB
:10D570000020938747DC03C7470062076187635534
:10D58000070005472382E700B727002083A7C7DEEF
:10D590003707020098C79317C50063D00702B72763
:10D5A0000020938787C803C71707058B29C303C7C4
:10D5B000170713672700A388E7068280938747DC55
:10D5C00003C7370013671700A381E70085B703C7B8
:10D5D000070789463D8B6308D70003C707078D46B9
:10D5E0003D8BE312D7F811472388E706ADBF03C789
:10D5F0001707118B79D303C717071367870065BF18
:10D60000B7270020B726002003A6C7DE938746DC95
:10D6100003C746DC058B11C723820700A3820700DE
:10D62000828003C71700058B65FB785275F303C72B
:10D630005700EDB737270020032807DC832788032E
:10D640009583858BC1E311C683270803BD8323001F
:10D65000F60085CA832707DC985B46079357670166
:10D660006356070093E707C0C207C183039706000C
:10D67000C207C18709C7BA970947B3C7E702239012
:10D68000F6009DCD8345150085CDB72700209387F3
:10D6900047DC83C7670013879500894593F7070424
:10D6A00085C33A95834705000547994593F6F706E4
:10D6B0006398E600E207E187814563D30700B94537
:10D6C0002E8582808545EDBF411122C406C626C243
:10D6D0004AC0372400205DE18326C4DE2E87FC5239
:10D6E000FDFFB7240020938744DC23810700B72780
:10D6F0000020938607ADD452938444DC138907AD90
:10D7000095C6B7E700E0B706200023A0D728B7F7F3
:10D7100000E083A607D1ED9A23A8D7D083A607D12E
:10D7200093E6860323A8D7D0730050103A85B285BC
:10D73000973002E0E7800033B727002083A707DC9B
:10D74000B70680009843558F98C3D857719BD8D798
:10D750008327C4DEA3820400A3800400094798C382
:10D76000832749029DCB37F700E0832707D193E752
:10D7700087002328F7D07300501005A08D4763144D
:10D78000F504B727002083A707DCB706800098437D
:10D79000558F98C3D857719BD8D78326C4DEB72737
:10D7A0000020938747DC03C72700058B19E703C7D1
:10D7B0003700058B51CF23820700B24022449244A8
:10D7C0000249410182808547E319F5FCB727002013
:10D7D000138707AD545395C6B7E700E0B70620009E
:10D7E00023A0D728B7F700E083A607D1ED9A23A896
:10D7F000D7D083A607D193E6860323A8D7D073009A
:10D8000050108326C4DE8177FD17D046F18FDCC629
:10D810000F1000008326C4DEB7070200930500F84E
:10D820009CC6B7270020938747DC2382B700B72721
:10D83000002083A707DC9C439D83858B99C79307B2
:10D840006019FCD2D0C65C5331BF9307E01BD5BF33
:10D85000F85231FB9DB7B727002083A7C7DE884762
:10D86000D847798D09C988C7B727002003A3C79D6A
:10D87000630303000283828037270020B72600203D
:10D88000138606DF130707E18347D7008345B601F8
:10D89000484AAE97FD8BB355F500A300F600A306EA
:10D8A000F700858995E903471701814613080002AF
:10D8B000B3F7E7020147B355E50085899378F70F81
:10D8C00089C96395D700A30016018280850693F667
:10D8D000F60F0507E31107FF8280B7270020938723
:10D8E00047DC83C7570093F7F70FD1EBB72700202A
:10D8F00083A747AC411122C44AC006C626C28297FC
:10D9000037290020930709E18047130909E16302E1
:10D91000A40663688504018DB7240020938704DF83
:10D9200083C7A70113545500938404DF6363F40491
:10D93000A13783C7A4010327890093965700369720
:10D940001D8C2324E900E375F4FE224403C5140072
:10D95000B2409244024981454101173302E0670019
:10D96000A37FB727002083A707B23384874022957F
:10D9700065B7B240224492440249410182808280CC
:10D98000B727002083A747AC011122CC26CA52C476
:10D9900006CE4AC84EC68297B7240020938704E17A
:10D9A0008047014A6301A406938404E16366850607
:10D9B000018D37270020930707DF83C7A701135482
:10D9C0005500137AF501130907DF636BF402B729D9
:10D9D00000209389C9B14D358346A90103A884006D
:10D9E00083A54900139756004297158C3A866364C5
:10D9F00007016364B7003306B74090C4E37DD4FCED
:10DA00001604336A4401F24062445285D2444249CA
:10DA1000B249224A05618280B727002083A707B256
:10DA200033848740229571B7B727002003A7C7DE4C
:10DA30008967938707F47CD3B727002083A707E47F
:10DA400083A60709139656006358060083A60709A4
:10DA500013966600634406007453FDF28280000052
:10DA6000EFE01FCB730000000000000097020000F1
:10DA70009382622C0383020023800200630F030061
:10DA8000F32510342EC0970500009385A5FD7390F3
:10DA90001534EFF05FDC7300203086DCEFF0BFDB85
:08DAA000E65082800000000046
:10DAA800B72700203727002083A707A7032787A6C3
:10DAB80001456313F700828083D6670081E683D629
:10DAC800470036959C43F5B7B727002083A507ADD7
:10DAD80037270020938707AD138605222328C7A67A
:10DAE80003D74700938785FFB72600204111BA97CF
:10DAF800056523A4F6A606C61D059356370063746C
:10DB0800E500930600203307D6003725002023269A
:10DB1800E5A623A0E522E1162312D600231306006A
:10DB28001CC3998FE1172312F700231307008D3FB9
:10DB3800B240B7270020239FA7A641018280B727BC
:10DB48000020B726002083A707A703A686A62A8752
:10DB5800B305B5406314F6003A8529A89386870073
:10DB68009C43E369D7FEE377F7FE2E85E3E4D5FE11
:10DB7800E3F2F5FE828023AC05FE1C4191E701002B
:10DB880001000CC18280BA8703A787FF6DFF23AC11
:10DB9800B7FE8280184183A785FF6319B7001CC1AF
:10DBA800FD5723AC05FE238FF5FE8280232CF6FE5D
:10DBB800C5BF411122C437E400E026C2044037073C
:10DBC800200006C6F98C2320E4180F10000009E98C
:10DBD800232094101545B24022449244410182808A
:10DBE8000347E5FF9307F00F6306F700232094101F
:10DBF8001145D5B79720FF1FE780805201452320A4
:10DC08009410D1BF411126C2B7E400E04AC003A96D
:10DC18000400B707200006C622C43379F90023A000
:10DC2800F4180F10000009E923A02411B24022447F
:10DC380092440249410182809565938505D0C98D3A
:10DC48002A842105C2054205C18141819720FF1F11
:10DC5800E780C03E01CDFD57232005002312850033
:10DC68002303F50023A024112105C9B723A02411FB
:10DC780001456DBF0111B7E700E04AC803A90700D5
:10DC88004EC63707200006CE22CC26CAAA89337989
:10DC9800E90023A0E7180F1000003725002003240F
:10DCA80045A78144014619E499E8A1654E85EF002E
:10DCB800B00431A88347E4FF6397370395C8A68566
:10DCC800130545A7C13D75D0A1654E854D2EF2407F
:10DCD8006244B7E700E023A0271126854249D244D1
:10DCE800B2490561828091E02286032484FF65BFE2
:10DCF800A284E5BF41114AC037E900E022C40324E9
:10DD080009003707200006C626C2798C2320E918A7
:10DD18000F10000089E523208910154515A0B727A5
:10DD2800002083C797A7AA842E8563F5F400894746
:10DD380063EE9700BD3DB7E700E023A087100D45CF
:10DD4800B2402244924402494101828083A785FF60
:10DD580099E703C7E5FF9307F00F6308F700913DC4
:10DD6800B7E700E023A087104DBF37250020238F99
:10DD780095FE130545A70135A165268509260145A8
:10DD88002320891075BFB727002023AA07A6828001
:10DD9800B727002083A7C7AC99E33E85828003D7C5
:10DDA80027006316B70003C70700E308A7FEDC4790
:10DDB800E5B7B9CD011106CE22CC26CA8147C146A6
:10DDC80033D7F540058B21C312053E9531473305FE
:10DDD800E50237270020832407B105443314F400F3
:10DDE8002EC642044180AA949C40C8408297B245FE
:10DDF80023A0040023A20400A18DF2406244D2446F
:10DE08002E85056182808507E39CD7FA0144EDB72A
:10DE18002E858280BDCD797122D406D626D24AD0ED
:10DE28004ECE01444147B3D78540858BB1CF12050B
:10DE3800314722953305E502B727002003A907B12A
:10DE48008544B3948400C204C180BE892A990327FB
:10DE5800090011C7032549002EC60297B24531476C
:10DE68003304E40283A709B13E941C4489E72320C4
:10DE7800090023220900B2502254A58D0259925458
:10DE8800F2492E85456182800504E31EE4F8814449
:10DE9800DDB72E8582804111B7E700E026C28443B2
:10DEA8003707200006C622C4F98C23A0E7180F10F4
:10DEB8000000B727002083A707AF372400201304EA
:10DEC800049291C782971C403E9508C031A0B7279D
:10DED800002083A747ACFDF70840B74703009387A6
:10DEE800D73F3305F502B7A72600938737ECB24032
:10DEF8003E9508C02244B7E700E023A0971092445B
:10DF08004101828001112E8626CAAA8413150601B2
:10DF18009305F004418122CC06CE32C69720FF1F1C
:10DF2800E780C0112A8419C53246A6859720FF1FAD
:10DF3800E780802E2285F2406244D24405618280C7
:10DF48007971B7E700E022D480433708200006D66D
:10DF580026D24AD04ECE52CC56CA5AC85EC662C4E1
:10DF68003374040123A007190F10000005E123A052
:10DF780087100945B250225492540259F249624A14
:10DF8800D24A424BB24B224C45618280B7270020CF
:10DF980083A747ACBA8A368AB28B2E8BAA89829716
:10DFA800B727002003A707B13E898144B146C1477E
:10DFB800338CD40233068701104241E6C16593854C
:10DFC80005F041459720FF1FE780400719EDB72767
:10DFD800002083A707B081C7814511458297B7E71D
:10DFE80000E023A087102D4571B7B727002003A7AD
:10DFF800C7AC21E723A6A7AC23000500832709B1F6
:10E00800054733179700232605002324750123119C
:10E01800E50023225501E29723A0370123A26701D7
:10E0280023A4570163040A0023009A00B7E700E01D
:10E0380023A0871001453DBF3E875C47F5FF48C7D1
:10E0480065BF8504E396F4F6B7E700E023A08710E0
:10E0580021450DB7B727002083A787B1411122C4F6
:10E0680006C637240020130484A789C782975C4812
:10E078003E9548C84848B240224441018280B7E7EB
:10E0880000E09843B706200023A0D718758F0F101B
:10E098000000B726002083C696A76372D5023726EC
:10E0A800002093161500032586AC36958356050087
:10E0B800D58D2310B50023A0E7100145828023A049
:10E0C800E7100D458280B7E700E09843B7062000C7
:10E0D80023A0D718758F0F100000B726002083C61D
:10E0E80096A76374D50237260020931615000325DA
:10E0F80086AC93C5F5FF369583560500F58D23103C
:10E10800B50023A0E7100145828023A0E7100D4544
:10E118008280011137E700E026CA0443B7062000D1
:10E1280006CE22CC4AC84EC652C4F58C2320D71836
:10E138000F100000130705FF1377F70FFD4763E281
:10E14800E70AB146B306D502B727002003A707B1EF
:10E1580036971C43D9C71359450005443D893315E3
:10E16800A400131405014180AE894A85A2850D31AA
:10E178002A8A39C9A2854A85B937B727002083A7D3
:10E1880047AC372900201309C9B182978357890002
:10E198002A848146B385370313060064B3B737036F
:10E1A80013850532B335B500BE95EFE0415EB30780
:10E1B80085003E878326490063E4A70063E4D7000F
:10E1C8003387D7402324EA00B7E700E023A097105D
:10E1D8000145F2406244D2444249B249224A0561AB
:10E1E8008280B7E700E023A097100945DDB7011149
:10E1F800B7E700E026CA84433707200006CE22CCC2
:10E208004AC84EC6F98C23A0E7180F100000BD4776
:10E2180063E8A70431473307E502B727002083A73F
:10E2280007B1BA979C438DCF05443314A400420428
:10E2380041802E890145A285A13EAA8911C5A285E2
:10E248000145513523A42901B7E700E023A0971021
:10E258000145F2406244D2444249B2490561828094
:10E26800B7E700E023A097100945E5B779714AD0D0
:10E2780037E900E026D283240900B707200006D634
:10E2880022D44ECE52CC56CA5AC85EC6FD8C232024
:10E29800F9180F100000B727002083C797A76378E5
:10E2A800F500B727002083AB47AC63970B00B7E7AF
:10E2B80000E023A0971099A0B72900209389C9B13D
:10E2C800AE8A03AB490083D58900B74736FE9387EA
:10E2D80007C83E9BB387C5022A84328A8146B3B5F4
:10E2E800C50213850732B337F50013060064BE95DF
:10E2F800EFE0E1496370AB02232099100145B25069
:10E30800225492540259F249624AD24A424BB24BC1
:10E3180045618280829B83D589002A89130600641F
:10E32800B38745038146B3B5450313850732B33731
:10E33800F500BE95EFE0A145B30725013E8903A787
:10E34800490063E4A70063E4E7003389E740D68522
:10E3580022853D3C09C923242501B7E700E023A015
:10E368009710054569BF936504F0C205C181414511
:10E378009720FF1FE78080CC11E9B727002083A7EB
:10E3880007B095D7A2851145829715B73727002082
:10E398008327C7AC95E32326A7AC8547232605002A
:10E3A800232425012311550123008500A300F5002E
:10E3B800232205005DB7BA87D84775FFC8C7F1BFE4
:10E3C8007971B7E700E026D284433707200006D6E4
:10E3D80022D44AD04ECE52CC56CA5AC85EC662C45F
:10E3E80066C26AC0F98C23A0E7180F1000002DC17F
:10E3F8004144B689B28A2E8A2A89B14C372B00202B
:10E40800054D130C0003B30B940303270BB15E9760
:10E418001C43A5E39375F400B315BD0013554440A0
:10E42800C2055686C1811375F50F893539C1832711
:10E438000BB1DE9723A0270123A2470163840900BB
:10E4480023808900B7E700E023A09710014521A0A9
:10E4580023A097100945B250225492540259F24908
:10E46800624AD24A424BB24B224C924C024D456111
:10E4780082800504E31984F9B7E700E023A0971028
:10E488002145D1BF0111B7E700E026CA844322CC59
:10E498004AC84EC63707200006CE2A84AE8932897C
:10E4A800F98C23A0E7180F100000C9332285CE8508
:10E4B800C5302A8405C5B727002083D547B213067F
:10E4C80000648146B3872503B3B525031385073256
:10E4D800B337F500BE95EFE0812B48C01335140023
:10E4E800F2406244B7E700E023A097104249D244C3
:10E4F800B2490E05056182800111B7E700E04AC8FC
:10E5080003A9070022CC4EC63707200006CE26CA2C
:10E51800AA892E843379E90023A0E7180F10000098
:10E528008538AA8419C123110500A2854E85613E4C
:10E53800B727002083C787A763993701B72700202B
:10E5480003D707AC598C239087ACB7E700E023A02A
:10E558002711014591E01945F2406244D2444249ED
:10E56800B2490561828001114AC837E900E022CC2E
:10E5780003240900B707200006CE26CA4EC67D8CA4
:10E588002320F9180F1000009307F00263E6A70490
:10E59800B147B304F502B729002083A709B1A697AC
:10E5A8009C439DCB9377F5008545B395F500C2054F
:10E5B800C1811181913783A709B10145A69723A08D
:10E5C800070023A2070023208910F2406244D244A6
:10E5D8004249B24905618280B7E700E023A087106D
:10E5E8000945E5B74111B7E700E026C2844306C6EE
:10E5F80022C437072000F98C23A0E7180F10000069
:10E60800EFF00FF919E90145B2402244B7E700E0FD
:10E6180023A09710924441018280B727002083A746
:10E6280047AC00458297B72700209387C7B1636836
:10E63800A402D843B74636FE938606C83305A440DD
:10E648003697E372E5FC13070064B335E50203D699
:10E65800870081463305E502EFE0611375B7D843BB
:10E668003A94C1BF411122C426C237240020B724DE
:10E6780000201307C4B1938484A794485843B7274C
:10E68800002006C683A747AC1304C4B16392E6080A
:10E6980082975440B74736FE938707C8B6973387A3
:10E6A800A7003A856364F7006364D7003305D74051
:10E6B800B7240020938744DCDC53938444DC99CB53
:10E6C800B727002083A607E43707CDFF7D179C46B0
:10E6D800F98F9CC611E14840B727002083A747AFB0
:10E6E800829719E5DC5085C3EF60C178EF507172ED
:10E6F800DC5091CBB727002003A707E4B706330007
:10E708001C47D58F1CC7B2402244924441018280E5
:10E71800829794485840B387A6003E8563E4D700A3
:10E72800E3E8E7F83385E74061B74111B7270020F0
:10E7380006C623ACA7B00295B240B727002023A88D
:10E74800A7A8014541018280994763E9B700B72727
:10E7580000208A05938747AABE9588C18280B7277B
:10E76800002023AAA7B011C5B72700200547238199
:10E77800E7AC8280B727002023A607ACB727002084
:10E7880023AC07B0B727002023A207AC3725002009
:10E79800B72700204111238107AC7146B727002015
:10E7A8008145130545AA06C623AA07B022C426C276
:10E7B800372400209720FF1FE78020AD130584A78A
:10E7C8001306800281459720FF1FE78000ACEFF019
:10E7D800AFAFB7270020938707AD03C5C70383C72B
:10E7E800D703130484A785453E958D473305F50265
:10E7F8009947B724002039051375F50F2301A400A4
:10E808003305F502130505249720FF1FE7800083D1
:10E8180023A8A4B049C1034624009947814533067B
:10E82800F602130606249720FF1FE78000A683A799
:10E8380004B103472400B7240020938707240A075C
:10E8480023A0F4AABA97372700202324F7ACEFF0C7
:10E858008FD3A5298347140083A604AA37E60000AE
:10E868001397270036971306C6E110C313871700BE
:10E878001377F70F0A0737E6000036971306A6DB6B
:10E8880010C313873700890793F7F70F8A07A30088
:10E89800E400B69790C3B24022449244410182807A
:10E8A80037270020130787A78347170083462700C9
:10E8B80063F0D702B726002083A606AA138617009E
:10E8C800A300C70013972700369708C33E858280A8
:10E8D8009307F00FE5BF1C41638C071041777D8FCC
:10E8E800B706002089476316D7100357450063020F
:10E8F8000710411126C21946AA849305F00F610535
:10E9080006C622C49720FF1FE78020A305478D472E
:10E91800630AE50C9C4491C7D858994761C7985C2D
:10E9280071C337240020130600048145130504AD84
:10E938009720FF1FE780609513060004A68513053E
:10E9480004AD9720FF1FE780208D930704AD03D700
:10E95800C70009E7130700102396E70003C7E7007D
:10E9680001E705472387E70003D7070101E76D475C
:10E978002398E70003C7F70001E71547A387E700D7
:10E9880003C7270101E705472389E70003C73701C4
:10E9980009E703C7F700A389E70003C7570101CBBD
:10E9A800937637000983238ED702A38EE70203C725
:10E9B800470101E75547238AE70003C7640109E7D0
:10E9C8001307C003238BE7009C5791C78297B7278B
:10E9D80000202390A7A8B72700207D57A386E7EA41
:10E9E800513B8147B240224492443E854101828096
:10E9F80089473E85828001114AC83729002083272C
:10EA0800C9B106CE22CC26CA52C456C24EC6829777
:10EA1800130A0064B33545031309C9B1835A890041
:10EA28008146568633054503EFD07156B727002037
:10EA3800138787A7004FAA84014563069402938928
:10EA480087A733858440636E940003254900568662
:10EA58008146B335AA023305AA02EFD05153018D7E
:10EA6800269523AC9900F2406244D2444249B24907
:10EA7800224A924A05618280011122CC2E84B7D5A0
:10EA880002000A854146938545BE06CEEFE0A109FE
:10EA9800180806043A94B7270020035504FF83D7C3
:10EAA80067B2F2406244AA9737450F001305052460
:10EAB8003355F50205618280B727002083D767B2F6
:10EAC80051471D45637CF702794719456378F7027A
:10EAD8001307200315456373F7021307B0041145A4
:10EAE800637EF700130740060D456379F7001307A7
:10EAF800600909456374F70013B5B70F82800111E7
:10EB080022CC06CE2A842EC6EFF0EFB8B245F240EA
:10EB1800818D33A5A502229562441375F50F056111
:10EB28008280011122CC06CE2A842EC6EFF0AFB621
:10EB3800B245F240818D33A5A50222956244420573
:10EB4800418105618280011122CC06CE2A842EC61D
:10EB5800EFF06FB4B245F240818D33B5A50222952E
:10EB6800624405618280B7270020138707AD1857D4
:10EB78002DC3411122C426C24AC006C6138907AD57
:10EB88000297B7270020138787A7035787002A848F
:10EB9800938487A70DCBBA876373A700AA87C20798
:10EBA800C183BA866373E400A286C206C182958FC8
:10EBB8005147635AF7008327C90291C38297EF60D0
:10EBC800811423948400B2402244924402494101B2
:10EBD800828082800111B727002022CC37240020B0
:10EBE80023A807B2930704ADDC5706CE26CAAA8528
:10EBF800130404AD81C72AC68297B245C9C99C418E
:10EC08000545C9C3DC41BDCF83D78500A5CF83D7D0
:10EC1800A500ADCBB72400201385C4B15146938419
:10EC2800C4B19710FF1FE780205F23860400B72731
:10EC3800002083A6C7B1372700202322D7AC03477B
:10EC480074011DE39387C7B103D5870093078057E5
:10EC580037460F003305F502130606248146814521
:10EC6800EFD0F132A30BA40003477401A54763E575
:10EC7800E700A947A30BF40037F500001305E59F4B
:10EC88006D340145F2406244D24405618280B72761
:10EC98000020938787A73707002023AE07001307B4
:10ECA800876AB727002023AEE7B0378732009387FB
:10ECB800C7B1FD56130727A1D4C398C723860700F9
:10ECC800B7C7004023A4D7269DB7011122CC37240B
:10ECD8000020930704AD884706CE26CA4AC801E932
:10ECE8000545F2406244D2444249056182801304DA
:10ECF80004AD5C58F5D7185C65D7700085458297D8
:10ED08001844B247E30EF7FC0355C4009305E0042A
:10ED1800B72400209710FF1FE7804032138784A78D
:10ED280008D3938484A74DDD0356C4009305F00FE0
:10ED380001499710FF1FE78040558347E400905032
:10ED4800634DF90032859710FF1FE780603D01454C
:10ED580023A0040223A2040269B78355C40008440F
:10ED6800185CB3872503898105093E9508C2029777
:10ED7800E9B701114EC6B7290020938709AD9C4712
:10ED880026CA4AC852C406CE22CC56C25AC02A8ABB
:10ED9800AE843289638D071E938909AD03A74903A1
:10EDA800630407121307F01F6362A71237240020B9
:10EDB800130784A7832A0702130484A7639A0A08FF
:10EDC80003D5C9009565938515E09710FF1FE78067
:10EDD800E02608D02A866DC983D5C90083A74903D0
:10EDE80003A589008981829783A78900832A040261
:10EDF8005CD089476316FA08C1476397F40C83D53A
:10EE0800C9009147938505FCB3C5F5028A05D695D7
:10EE180003C725009307A0056314F70A83D70500E5
:10EE28006390470B4A85268691059710FF1FE78058
:10EE3800A03E1C505685639357130145F240624427
:10EE4800D2444249B249224A924A024B0561828021
:10EE58005850E380E7FA03D5C9009565938525E006
:10EE68009710FF1FE780801DAA8A39CD83D5C90076
:10EE78002A8683A7490303A589008981829795BFBC
:10EE88008D47631BFA00C1476390F40483D5C9001A
:10EE9800938545FDF199A5BF91476318FA006395DD
:10EEA800440383D5C900A115F5B793070010631D66
:10EEB800FA00A14763EA970083D5C900C115D9BFF5
:10EEC8001C5056856390570D29458DBF9D6A637CFC
:10EED8005509930A05E01947B3CAEA0203D7C900DE
:10EEE800372B0020B38AEA02BE9A93078BA7DC531C
:10EEF800130B8BA76395570103240B021DE003D561
:10EF0800C9009305E0049710FF1FE78020132A84A7
:10EF180045DD83D5C90083A749032A86898156859B
:10EF2800829791451307A005898193972500A29799
:10EF380083C627006393E60483D60700639C4603D1
:10EF480085058A052686A2954A859710FF1FE780C2
:10EF5800A02C83270B02E38287EE22859710FF1FE0
:10EF6800E780001CD9BD21677917E36FA7F4B30ABE
:10EF78005541ADB783C5370045BF83270B02E385ED
:10EF880087F422859710FF1FE780801935BFB727C0
:10EF9800002083A587A98DD991479306A005898369
:10EFA800139727002E9703462700E31FD6F0035632
:10EFB8000700631C460185078A072686BE954A8591
:10EFC8009710FF1FE78040258DBD83473700C1BFDD
:10EFD800B7270020938707AD984729C3985F1DCFAF
:10EFE8008546631DD502411122C43724002013042D
:10EFF80084A7105006C619CE83D5C700485089810A
:10F00800029708509710FF1FE78080112320040201
:10F0180023220402B24022444101828082800111ED
:10F0280022CC37240020930704AD56C283AA870058
:10F0380026CA4AC84EC606CE52C42A89AE84B289A8
:10F04800130404AD638C0A1C1C5C99EB2945F2403F
:10F058006244D2444249B249224A924A05618280B6
:10F068005C58EDD79307F01F63E8A70C372A0020F8
:10F0780093078AA79C53130A8AA7B9C7084483270A
:10F088004A02639FA70489476317F906C147E39FAC
:10F09800F4FA0355C4009147130505FC3345F502FE
:10F0A8009317250003250A022686CE853E959307E9
:10F0B800A0052301F5002310250111059710FF1F56
:10F0C800E7808015014561B70355C4009305E00446
:10F0D8009710FF1FE78080F62320AA0245F1BDB7ED
:10F0E8008355C4005C5803260A02898182971C4410
:10F0F8002322FA0249BF8D47631CF900C147E397F1
:10F10800F4F40355C400130545FD9377C5FF59BFB3
:10F1180091476318F900E39B24F30355C4002115B4
:10F12800EDB793070010E313F9F2A147E3E097F274
:10F138000355C4004115D1BF9D676378F506930751
:10F1480005E01947B3C7E7020357C400372A002070
:10F15800B387E702BE9A93078AA79C53130A8AA724
:10F16800A1CF83274A026395570703250A029146D0
:10F178001308A0059305F00F93D7260013972700CF
:10F188002A97034627006316060783580700034695
:10F198003700639C2805B306D64063C696048507E6
:10F1A8008A072686CE853E9511BF21677917E36FBA
:10F1B800A7E8B307F54049BF0355C4009305E00429
:10F1C8009710FF1FE78080E72320AA0259F9BDBDE9
:10F1D8008355C4005C5803260A02898156858297A4
:10F1E80023225A0359B72310B70093160601C18288
:10F1F80061B70356C400B38596009105130606FC53
:10F20800E366B6E413863400719A1106B2962301B8
:10F21800070123102701A301D70051B7372A00207F
:10F2280093078AA79C53130A8AA7A9C303250A022E
:10F2380091461308A0059305F00F93D7260013975E
:10F2480027002A97034627006314060583580700FA
:10F258000346370063982801B306D640E3D196F4F5
:10F268002310B70093160601C182C1BF0345E4000D
:10F278008357C4009305E0043305F5024205418134
:10F288009710FF1FE78080DB2320AA0245F17DBB92
:10F298000356C4008345E400B385C502338696004F
:10F2A8001106E3E5C5DAB9BF0145828083C70500C9
:10F2B8002300F50083D72500A300F50083D7250098
:10F2C800A1832301F50083C74500A301F50011457B
:10F2D8008280B727002023AA0794B727002023A8F5
:10F2E8000794828029C1411126C206C622C4AA8475
:10F2F80001458DC52E84B7D50200228541469385E8
:10F3080045BF9710FF1FE78020F183C7040005451C
:10F318002306F40083C71400A306F400B240224475
:10F3280092444101828001458280011122CC26CA83
:10F3380006CE0947AA8432846381E50441468147A1
:10F34800639BC500638FE6006397B6000DA841472D
:10F358008147638EE600F2406244D2443E850561EF
:10F3680082808A852285BD3F41468A8519A88A857B
:10F37800953F41468A85228531A0E39AB6FC2E86C0
:10F38800A28526859710FF1FE78080F4AA87E1B73A
:10F39800B727002023A8A7948280B727002023AA94
:10F3A800A7948280011122CC0354650006CE26CA98
:10F3B8004AC84EC641C083298500AE842A8803C93D
:10F3C8000900814713178901618763550702B1470F
:10F3D800054563FA87045114420403552800418007
:10F3E80033878900A2864E868545EFA0701AB33709
:10F3F800A00085077D141355690042040589137917
:10F40800F90341802380F400A380A4002381240110
:10F4180023928400014719C01387190098C409472B
:10F428006383E7000145F2406244D2444249B2494D
:10F43800056182800545C5BFC167F917630AF502F2
:10F44800D94763F7B702011122CC2EC606CE2A840B
:10F45800EF70F056B2456368B50022856244F24009
:10F4680005616F90A07AF24062440545056182808B
:10F4780005458280C167F9176314F5006F70305431
:10F48800411106C6EF90406711E15D45B240410168
:10F49800828091476394F502834705002300F600B4
:10F4A8008347250003471500A207D98F2311F600CB
:10F4B8008347350001452302F6008280114582808A
:10F4C8004111814522C426C206C6AA8405252A847C
:10F4D80009E9B727002083A7079581C7F94526853D
:10F4E80082972285B2402244924441018280397138
:10F4F8004ED656D25AD006DE22DC26DA4AD852D464
:10F50800AA8A2E8BB28941EF36C6AD379145EF7086
:10F51800D05CAA844D492DC9B246054A23803401DE
:10F528000544630A0B00B68513851400029B050584
:10F53800131405014180E20993D9894163D3090273
:10F54800C1455685EF908069654905E93386840091
:10F55800A2852685EFA0C0482A8905E13104420426
:10F56800418091472C085685231CF10026CE231D87
:10F578008100EF80D0712A8901C963070A002685B6
:10F588009710FF1FE780C0B9F25062544A85D254E1
:10F598004259B259225A925A025B21618280BA8436
:10F5A800014AADBF011122CC26CA4AC84EC606CEB2
:10F5B8002A893284B689253FAA840DE1B72700201D
:10F5C80083A7479581CF05476317E40003C4090063
:10F5D80005041374F40FA2854A858297F2406244A9
:10F5E80026854249D244B24905618280AE86B7F584
:10F5F8000000014705469385452B6DB783D7050065
:10F608002300F50083D70500A183A300F500094571
:10F61800828083D705002300F50083D70500A183E6
:10F62800A300F50083D725002301F50083D7250023
:10F63800A183A301F5001145828083D7050023002B
:10F64800F50083D70500A183A300F50083D7250023
:10F658002301F50083D72500A183A301F50083C703
:10F6680055002302F50083C76500A302F50003D502
:10F678008500190542054181828083D70500230052
:10F68800F50083D70500A183A300F5000945828012
:10F6980083D705002300F50083D70500A183A300C5
:10F6A800F50083D725002301F50083D72500A18322
:10F6B800A301F5001145828003D5450006054205E2
:10F6C8004181828083D705002300F50083D7050098
:10F6D800A183A300F50003D5250009054205418152
:10F6E800828083D705002300F50083D70500A18316
:10F6F800A300F50083D725002301F50083D7250053
:10F70800A183A301F50003D54500110542054181F8
:10F71800828083C705002300F5000545828083D7D2
:10F728000500411122C406C62300F50083D7050051
:10F738002E841105A183A30EF5FE83D72500950518
:10F74800230FF5FE83D7D5FFA183A30FF5FE03C6CC
:10F75800F5FF9710FF1FE78020AC03454400B24037
:10F7680022441105410182808947639CF500834743
:10F778001500034705000145A207D98F2310F6009D
:10F7880082801145828003D70500D94763FEE702CE
:10F79800011122CC06CE2EC62A84EF705022B24622
:10F7A80083D70600636DF50022856244F240B7F501
:10F7B8000000014709469385456005610DBBF2408D
:10F7C80062440945056182800945828091479DC54B
:10F7D80083460500FD15C2058547C1816392F6027F
:10F7E80013D725008D89914791E9914701CB0505EC
:10F7F8002301D6002310E60048C281473E85828057
:10F8080009479147E39CE6FEC94733D7F502B3F5AC
:10F81800F502D1BFAE86B7F50000014711469385C2
:10F82800A561F1B193F7350091EB8981914789C5BD
:10F838002310B60048C281473E8582809147EDBFBC
:10F8480003C745008947631AF702011122CC2A84AD
:10F85800C84506CEAE86014719C52EC69D45EFE0C0
:10F868000FAEB2462A8722856244F240B7F50000FF
:10F8780019469385256405619DB90945828099E1FA
:10F88800114582808347050005472311F600E37977
:10F89800F7FEFD1593F5F50F33D7F502B387E702A9
:10F8A800E390F5FE050548C22310E6000145828075
:10F8B80083C745000947AE866385E70041476399DA
:10F8C800E700B7F50000014721469385657205B149
:10F8D800094582802310B60091E1014548C20145DF
:10F8E8008280AE86B7F500000147294693852568D2
:10F8F800FDBE2310B60091E1014548C20145828052
:10F90800AE86B7F500000147314693858569C5B6CF
:10F918002310B60091E1014548C20145828003D712
:10F928004500854763FDE702011122CC2A848841FE
:10F9380006CE0DC12EC68545EFE06FA02A87228529
:10F948006244B246F240B7F5000039469385056C2B
:10F95800056171BEF240624409450561828009452E
:10F96800828091479DC5034705008D46914763F204
:10F97800E602FD15C205C181B3C6E5023308D70208
:10F988006399050105052310D6002311E60048C236
:10F9980081473E85828083C745000947AE866385D7
:10F9A800E70041476399E700B7F500000147414682
:10F9B800938565722DBE09458280B335B0001395D5
:10F9C80025008280011122CC26CA06CE03C78500F5
:10F9D8008547AA842E8449466310F702613C835701
:10F9E800240049151306200963C8A700F2406244A1
:10F9F800D244094505618280034794008547631412
:10FA0800F70013660604484011C58D4532C6EFE07D
:10FA18000F933246A2866244F2402A872685D24452
:10FA2800B7F500009385C56C0561D1B48D4763FFB8
:10FA3800B7028347150003470500F115A207D98FC0
:10FA48002310F6008347350003472500C205A207A7
:10FA5800C181D98F2311F6002312B60089C511057B
:10FA680008C60145828023240600E5BF114582802F
:10FA7800011122CC2A84884506CEAE8611C52EC631
:10FA88009545EFE0CF8BB2462A8722856244F24043
:10FA9800B7F5000059469385A56E056189BCB33555
:10FAA800B000139525008280AE86B7F500000147A7
:10FAB80061469385A57125BC8547114563F4D70236
:10FAC8008347160083450600A207CD8F2310F70051
:10FAD8009387E6FF2311F70089476386F600090636
:10FAE80050C30145828023220700E5BF01478146B4
:10FAF80079468145EDBA83D705002300F50083D701
:10FB08000500A183A300F5000945828083C725006D
:10FB180005472300F50003D505006397E7000A05AC
:10FB28000505420541818280C9473305F502CDBFED
:10FB380003D505000A0542054181828083D7250047
:10FB48002300F50003D5050083D725003305F5020A
:10FB5800050542054181828003D50500828003D5D1
:10FB68000500828003D50500828083D72500230005
:10FB7800F50003D5050083D725003305F5020505F3
:10FB880042054181828083D705002300F50083D791
:10FB98000500A183A300F50083D725002301F50004
:10FBA80083D72500A183A301F50003D545001105DE
:10FBB80042054181828083D705002300F50083D761
:10FBC8000500A183A300F50003D52500090542051A
:10FBD8004181828089471145639BF600834716005F
:10FBE800834606000145A207D58F2310F7008280BF
:10FBF80003D70500D947AE8663F9E700B7050100CA
:10FC080001470D469385E5AF71BA094582801145D4
:10FC18006393A60283471600834606000145A207A0
:10FC2800D58F2310F7008347360083462600A207A6
:10FC3800D58F2311F700828083C725000547FD175C
:10FC480093F7F70F6361F70483D705008DCF011190
:10FC580022CC2A84C84106CE15C12EC68945EFD0CC
:10FC68001FEE2A8722856244B246F240B70501009A
:10FC78001546938545B105616FF0DF92F240624405
:10FC8800094505618280094582809547114563F9D8
:10FC9800D706411122C426C24AC006C683471600A9
:10FCA800BA8403470600A2073284D98F2390F40050
:10FCB800834736000347260093054400A207D98FDF
:10FCC8002391F40089472382F400094613855400E0
:10FCD80036899700FF1FE78020549307A9FF2394D4
:10FCE800F4009947631BF90023A60400B24022449C
:10FCF800924402490145410182801904C0C4FDB7FC
:10FD0800828083D705008DCF011122CC2A84C84177
:10FD180006CE15C12EC68545EFD07FE22A872285FB
:10FD28006244B246F240B70501001D46938585B38B
:10FD380005616FF03F87F2406244094505618280A2
:10FD48000945828099476395F6048947411106C69B
:10FD58002302F7008347160083460600B285A207F0
:10FD6800D58F2310F70083473600834626000346C5
:10FD78004700A207D58F130557002311F7009105F7
:10FD88009700FF1FE7804049B2400145410182804A
:10FD9800D14711456394F600C1474DBF828083D790
:10FDA80005008DCF011122CC2A84C84106CE15C189
:10FDB8002EC68945EFD0BFD82A8722856244B2462D
:10FDC800F240B70501002546938545B405616FF0FB
:10FDD8006FFDF240624409450561828009458280D1
:10FDE80089471145639BF600834716008346060042
:10FDF8000145A207D58F2310F7008280011122CC7C
:10FE08002A84C84106CEAE86014719C52EC6854547
:10FE1800EFD0FFD2B2462A8722856244F240B70566
:10FE280001002D46938505B605616FF0AFF71145C2
:10FE38006393A60283471600834606000145A2077E
:10FE4800D58F2310F7008347360083462600A20784
:10FE5800D58F2311F7008280011122CC2A84C84152
:10FE680006CEAE8611C52EC68545EFD05FCDB2460B
:10FE78002A8722856244F240B705010035469385FA
:10FE880065B605616FF00FF293F71600114589EB1F
:10FE980089476387F60085822312D70010C301457E
:10FEA8008280011122CC2A84C84106CE15C12EC6F3
:10FEB8008545EFD0DFC82A8722856244B246F240E2
:10FEC800B70501003D469385C5B605616FF08FED16
:10FED800F240624409450561828083D705008DCFD1
:10FEE800011122CC2A84C84106CE15C12EC68945E7
:10FEF800EFD0FFC42A8722856244B246F240B70594
:10FF080001004546938525B705616FF0AFE9F240DA
:10FF1800624409450561828009458280854763FC02
:10FF2800D7022304A700A304B7008347160083451C
:10FF38000600A207CD8F2310F7009387E6FF231151
:10FF4800F70089476386F600090650C30145828099
:10FF580023220700E5BF11458280014781464D46AF
:10FF680081456FF02FE48D47114563FBD702834726
:10FF7800160083450600A207CD8F2310F70083479C
:10FF8800360083452600A207CD8F2311F7009387FB
:10FF9800C6FF2312F7006386A600110610C70145A5
:10FFA800828023240700E5BF011122CC2A848845DA
:10FFB80006CEAE8611C52EC69545EFD05FB8B246BF
:10FFC8002A8722856244F240B70501005D46938581
:10FFD800E5B805616FF00FDD854711456397F600B9
:10FFE8008347060001452300F700828001478146C8
:08FFF800654681456FF00FDB47
:020000021000EC
:10000000011122CC2A84C84106CEAE86014719C50B
:100010002EC68D45EFD03FB3B2462A872285624473
:10002000F240B70501006D469385E5BB05616FF0B1
:100030008FCC011122CC2A84C84106CEAE8601475E
:1000400019C52EC68D45EFD01FB0B2462A8722852E
:100050006244F240B705010075469385E5BB056132
:100060006FF06FC9011106CE2EC6EF80902501C931
:10007000B245F2400355250005616FC0F03BF240E8
:10008000494505618280B7270020A3800798B727DC
:10009000002023800798B727002023A40796B727BE
:1000A000002023A60796B727002023A80796B72786
:1000B000002023AA0796B727002023A20796B72778
:1000C000002023A00796B7270020239A07B4130621
:1000D0004038938747B52391C70271761307400BC9
:1000E000130606B82391E7002392C70211671D4645
:1000F000930600059305000A1305007D2392E7008F
:100100002393C70241470546130810F82395E700DB
:100110002396E7002399E700239AE700239BE70053
:10012000239CE7002394E7022393B7002394B700AE
:100130002397D7002398D700239DA700239E07006D
:10014000239F0700239007022395C70223960703E6
:10015000239707029308F007239807022392E704E6
:100160002393E704239FE7042390E7062391E70600
:100170002392E706239917031307C01C239AC7028B
:10018000239BC702239C0702239D0702239E07028D
:10019000239F0702239007042391C7042394070495
:1001A000239507042396C7042397D7042398D704DD
:1001B0002399A704239A0704239B0704239C07047D
:1001C000239DD704239ED7042393A70623940706D1
:1001D00023950706239607062397B7062398B706A5
:1001E00023990706239AE7067D57239B070623904A
:1001F00007092391E7088280011126CAAA842145B4
:1002000022CC06CE2E8432C636C43AC2EFD01FA00E
:100210001DC9A24612473246930700FD2300F50090
:100220009947A30095002301F5002303D500A303FC
:10023000E5002312C500AA8522856244F240D2441B
:1002400005616FD0BFABF2406244D2440561828049
:10025000B727002023A8A7968280B727002023AACB
:10026000A7968280011122CC4AC806CE26CA2A89C6
:100270000144B30489006368B400F2406244D2448C
:100280004249056182802EC6EFD07FC193170501D8
:10029000C183A183B2452380F4009307140093F730
:1002A000F70F850463F9B700CA9709042380A700F4
:1002B0001374F40F7DBF3E847DBF411122C43724E7
:1002C0000020130444B303556400C16706C6FD173C
:1002D000630FF500B727002003C687C7B7250020A6
:1002E00093858597EF80A05CFD572313F400B240FF
:1002F00022444101828009C925151375F50F133574
:10030000850E1345150082800145828023900500EB
:10031000C9C6797122D426D24ECE52CC5AC806D63E
:100320004AD056CA5EC63684328AAE892A8B814448
:1003300063F34407B307940083C7070013891400CD
:100340004209939A070193DA0A0113590901638458
:100350000A04CA976341FA04B307240183CB070058
:100360005E85513F0DC99387FAFF2390F900639092
:100370006B03130519002295B2502254925402596E
:10038000F249624AD24A424BB24B45618280D694CE
:10039000C204C18071BF0145C5B70145828001110A
:1003A00022CC3724002026CA4AC84EC6930744B33D
:1003B00006CE2E89D0CB8CCBC8C7AA8441469305E4
:1003C000F00F4A859700FF1FE780A0F785491304C7
:1003D00044B3631935030848C1456935414693055F
:1003E000F00F26859700FF1FE780A0F505496315EC
:1003F000250348446244F240D2444249B249C145CF
:1004000005618DB5414681454A859700FF1FE7800C
:1004100040F3E31535FDC1B7414681452685970078
:10042000FF1FE78000F2E30625FDF2406244D2445C
:100430004249B24905618280411122C4372400201B
:1004400026C24AC0AE842A891306000281451305DC
:1004500044B306C69700FF1FE780A0E3930744B3A9
:10046000A3812701B7270020238E97C6EFC0007F06
:10047000854719C181474945230AF4B2B240224455
:100480009244024941018280814781CD19C9854743
:10049000631BF50083C7550093E707FCA382F500B3
:1004A00085473E85828089476317F50083C75500DD
:1004B00093F7F703E5B70D478547E314E5FE03C758
:1004C00055001377F70313670704A382E500D1BF34
:1004D00081478DC105C103C755009306000C8547B0
:1004E0001377070C6308D700930600048D47630356
:1004F000D70089473E858280411122C4005D06C62F
:1005000026C21DC8AA84085009C59700FF1FE780AE
:10051000A0C1485009C59700FF1FE780E0C00854FC
:1005200009C59700FF1FE78020C022859700FF1FA5
:10053000E78080BF23AC0402B240224492444101D0
:10054000828019E9B727002083C767B391C7372591
:100550000020130585958280372500201305C5B43A
:100560008280B727002003C567B38280B7270020A9
:1005700003A507B48280B727002003A547B4828073
:10058000B727002083A787B488438280B72700203D
:10059000938747B3D44B9842050798C203C53700E9
:1005A0009307F00F6305F50091656FD0DFAD828092
:1005B000011122CC06CE2E8432C6EF8020619147F5
:1005C000B2456310F502B727002083A7479795C36C
:1005D00003A30700630F030022856244F240056114
:1005E0000283B727002083A7C79681C703A34700CC
:1005F000D5B7F2406244054505618280011122CCE5
:100600002A840355450006CE26CA4AC84EC6EF8046
:10061000003A3DC92A89834405008349C500E93D64
:100620004A85EF80D01903554400EF806055372983
:1006300000201309099883470900B9CB639A9704EE
:10064000B727002083C517982685293C19E1230088
:10065000090003554400EF8060579147631FF50080
:10066000B7270020938747B38356440003D767001A
:100670006395E6007D572393E700F2406244D2443D
:100680004249B2490561828081499304F00F45B720
:100690009307F00FE38FF4FA834664000356440097
:1006A000034524004E87A685813E65B779715EC6F5
:1006B000AA8B2E8552CC56CA5AC806D622D426D228
:1006C0004AD04ECEAE8A328B368AEF80402E7DC124
:1006D000045D2A89E5C09C50614599C31305400318
:1006E0009C5481C751054205418163050A0071058B
:1006F00042054181DC5081C75D0542054181EFD053
:10070000EFD02A8445C9614681459700FF1FE780E5
:1007100040B8B727002083C947B8639409008349CC
:100720000900930700FD2300F400A947A30074010A
:100730002301F400230364018C5023125401130598
:10074000840191C908C47146930A44039700FF1FAE
:10075000E78000AD56858C5491C948C45146930A30
:1007600045019700FF1FE780A0AB5685630C0A0088
:1007700008C87146D285930AC5019700FF1FE7801C
:1007800020AA5685CC5099C548C85D469700FF1FE2
:10079000E78000A9A2854E85EFD04FD62254B250F3
:1007A0009254F249624AD24A424BB24B4A850259AC
:1007B000456199B3B250225492540259F249624AA7
:1007C000D24A424BB24B4561828001114EC6AA8982
:1007D0002E854AC806CE22CC26CA2E89EF80201D3F
:1007E00021C9B727002083C447B899E08344050096
:1007F0001945EFD0AFC12A8405CD81451946970030
:10080000FF1FE78000A9930700FD2300F400B9470C
:10081000A30034012301F40023122401A2856244C1
:10082000F2404249B2492685D24405616FD00FCDCE
:10083000F2406244D2444249B24905618280397132
:100840005ECEAA8B2E8526DA4ED652D456D25AD0F8
:1008500006DE22DC4AD8AE84328BB68A3A8ABE895A
:1008600042C6EF80C01421CD2A894145EFD00FBA8E
:100870002A8431C5414681459700FF1FE78060A16A
:10088000B727002003C547B819E1034509009307BE
:1008900000FD2300F400BD472301F400B247A3008C
:1008A00074012312940023046401A304540123055A
:1008B0004401A30534015CC4A285EFD02FC4F250DB
:1008C0006254D2544259B259225A925A025BF24BA4
:1008D00021618280797126D2AA8439454AD04ECED0
:1008E00006D622D42EC6B2893689EFD02FB221C1C6
:1008F000B2459307000D2310F500B1472A84231257
:10090000B5002301F500CE85190519469700FF1F94
:10091000E780009123062401A2852254B250025997
:10092000F24913F5F40F925445616FD02FBDB250C8
:10093000225492540259F24945618280411126C2E3
:10094000B7240020938444B303C7340006C622C4EE
:100950004AC09307F00F630CF7042A893945EFD09A
:10096000EFAA2A8429C5930700FDB725002023009C
:10097000F500A3002501230105009385C5B40D05ED
:1009800019469700FF1FE780A08983D78400A285BE
:1009900003C534002315F40083C714002306F400B4
:1009A0002244B2409244024941016FD02FB5B24077
:1009B0002244924402494101828001115AC02A8B8B
:1009C000314526CA4EC652C456C206CE22CC4AC8AB
:1009D000AE84B28A368ABA89EFD04FA33DCD2A843D
:1009E0002685EF70D07C11C50347C500A14763146D
:1009F000F704B727002003C977B3930700FD23004E
:100A0000F4009D47A30064012301F4002312940025
:100A1000231354012314440123153401A285624495
:100A2000F240D244B249224A924A024B4A85424994
:100A300005616FD0AFACB727002003C9D7C7E31E4D
:100A40000BFAB727002083A787A19C47DDD7CE8666
:100A50005286D685268582974DB7F2406244D244AD
:100A60004249B249224A924A024B056182800111F1
:100A700022CC2A84214506CE2EC6EFD02F9921C143
:100A8000B245930700FD2300F500C5472301F5009B
:100A900083C73500A301F50083D745002312F50075
:100AA00083C765002303F50083C77500AA85A303E8
:100AB000F50022856244F24005616FD02FA4F24018
:100AC000624405618280397162CC2A8C594526DAEC
:100AD0004AD84ED652D456D25AD05ECE06DE22DC4A
:100AE000AE8432C636C4BA8B3E8BC28A468A8359DC
:100AF000010403494104EFD06F9125C932469307A1
:100B000000FDA2462300F5009547A301C500A30000
:100B100085012301F5002A8419461105A9C2B6856D
:100B200097F0FE1FE780C06F23066401230A2401AB
:100B30002315740123175401231844012319340188
:100B4000A2856254F2504259B259225A925A025B1B
:100B5000F24B624C2685D25421616FD02F9A814589
:100B600097F0FE1FE780E072C1B7F2506254D25492
:100B70004259B259225A925A025BF24B624C21619D
:100B80008280411122C437240020130444B38347D8
:100B9000240006C626C28DCBB7240020AA8519469C
:100BA0001385849597F0FE1FE78080670345240036
:100BB00093858495EFF05F8D2244B2401385849530
:100BC000924441016FC0400AB24022449244014520
:100BD00041018280411126C2B7240020938744B38B
:100BE00006C622C44AC003C737009307F00F938498
:100BF00044B36304F7042A892945EFD02F812A845E
:100C00000DCD930700FD2300F500A147A3002501AA
:100C10002301F50083C72400B7250020938585951F
:100C2000A301F5001946110597F0FE1FE780405F0C
:100C300003C53400A285EFD06F8C03C724008D4715
:100C40006311F702B727002083A7079799CB03A367
:100C50008700630803002244B240924402494101E4
:100C60000283B24022449244024941018280797158
:100C700022D406D626D24AD04ECE52CC56CA0944E9
:100C80005DCD2A8903550500AE895144EF7030527D
:100C9000AA8455C537270020930787C783C7470015
:100CA0008546BA8AFD1793F7F70F494463F9F608AA
:100CB0000347C500A1476314F700639209089C5CD1
:100CC0004544B5EF9165938545711305C00297F0D2
:100CD000FE1FE780203788DC2A8A4D442DC1130689
:100CE000C002814597F0FE1FE780A05A8357090094
:100CF00093064A0036852311FA0071469305490090
:100D000036C697F0FE1FE780A05189472300FA00FE
:100D100003C5C400B2460356090083C58AC76115DE
:100D200013351500EF80307B2A8463860900CE8559
:100D30002685EF80605801C42685EFF0EFFB228501
:100D4000B250225492540259F249624AD24A456141
:100D50008280B727002083C7C7C70547FD1793F7D1
:100D6000F70F6378F708894751C6011122CC26CACC
:100D70004AC84EC652C406CEAA89368AB2842E8983
:100D8000EF70F0422A84D14729C9485509C597F028
:100D9000FE1FE7806039F1452685EFD02F9748D4B4
:100DA000CD4705CD8346C40021478147639FE600B8
:100DB000630D0A000347A5010356050193062501AB
:100DC000AA854E85EF80E056AA8703474400630F4B
:100DD0000900136767002302E400F2406244D24432
:100DE0004249B249224A3E85056182801367470025
:100DF000DDB7C9473E8582809307000463EBA700F7
:100E0000B7270020938747B506053E950355050093
:100E1000828041657D158280011122CC2A842E8535
:100E200026CA06CEAE84EF7090381DCDB7470F00AE
:100E30009387F723094563E4870281450A85414684
:100E400097F0FE1FE780E044A685231081000A8505
:100E5000418023018100A3010100EF805047F2404F
:100E60006244D244056182804945D5BFB72700203E
:100E7000238DA7C682806F803060797152CC2A8A18
:100E8000328522D426D24AD04ECE56CA5AC85EC621
:100E900006D662C4AE8BB28A368BBA843E89C289CA
:100EA0004684EF70D03015C92A8C63140A02137778
:100EB0004B008347450015CF93E727012302FC0031
:100EC0008DEC631C0902639A090205E8ED9B23027D
:100ED000FC00832B8C03639F0B06B2502254925468
:100EE0000259F249624AD24A424BB24B224C456106
:100EF0008280F59B93E70701D1B793E74700230270
:100F0000FC0001CC1C484146A2852324FC021305A9
:100F10008C0197F0FE1FE780A03063910B02D5D8BB
:100F20000325CC0209C597F0FE1FE780E01FF145BD
:100F30002685EFC0BFFD2326AC0261BFE30B09F895
:100F40000325CC0209C597F0FE1FE780E01DF1459F
:100F50004A85C5B79DC483A70B0299EB916593851C
:100F60003571714597F0FE1FE780C00D23A0AB02DD
:100F700003A50B0219C57146A68597F0FE1FE780F1
:100F8000202A6388090283A74B0299EB9165938518
:100F900025715D4597F0FE1FE780C00A23A2AB02D2
:100FA00003A54B0219C55D46CE8597F0FE1FE7806D
:100FB00020271DC483A78B0299EB9165938515713A
:100FC000514597F0FE1FE780E00723A4AB0203A57D
:100FD0008B0219C55146A28597F0FE1FE780402479
:100FE0002254B2509254F249B24B224CCA865A86CD
:100FF0000259424BD6855285D24A624A45616FF00A
:10100000EFEA011126CA52C406CE22CC4AC84EC607
:101010002A8AAE84EF70B01925C5AA893945EFC078
:10102000FFBE2A8431CDB727002003C947B8631417
:10103000090003C909009307000D2310F400AD4710
:101040002301F4009385690013053400194697F0D5
:10105000FE1FE780E01C93F7140085808588230637
:10106000F400A306940023154401A2856244F240D3
:10107000D244B249224A4A85424905616FC01FC81D
:10108000F2406244D2444249B249224A0561828018
:1010900001114EC652C456C206CE22CC26CA4AC838
:1010A000AA8A2E8AB289EF7090102DCD2A89130555
:1010B000C002EFC0BFB52A8435C5B727002083C45E
:1010C00047B899E0834409009307000D2310F4000A
:1010D000E9472301F400930569001305340019461C
:1010E00097F0FE1FE780C013D28523155401130526
:1010F000C400414697F0FE1FE7808012CE8513059D
:10110000C401414697F0FE1FE7808011A28562442A
:10111000F2404249B249224A924A2685D2440561A8
:101120006FC0DFBDF2406244D2444249B249224A14
:10113000924A05618280411122C4372400201304A1
:101140000496084006C619C597F0FE1FE780C0FD4B
:1011500023200400B240224441018280011106CEC6
:1011600022CC26CA4AC82EC6EF70700439CDB245CB
:10117000B727002003C947B80CD5AA846314090017
:10118000034905004145EFC07FA82A841DCD930780
:10119000000D2310F500A5472301F50083C7540077
:1011A000938564001105A30FF5FE194697F0FE1F05
:1011B000E78000079C54A285F2405CC46244D2449C
:1011C0004A85424905616FC07FB3F2406244D24410
:1011D0004249056182801D71A2CC86CE2A842EC62A
:1011E000EF70E07C05CD8346C5001147AA874945CD
:1011F0006392E6029C5FB24599C383C56701B7B6A7
:1012000001002308B1009386E6C8100889452285AD
:10121000EF804001F6406644256182805145DDBF84
:10122000B727002083C7C7C70547FD1793F7F70FF8
:10123000637AF704894721CA411122C426C24AC0F1
:1012400006C6B2842E89EF7080762A84D14705C500
:10125000630809008347450093E727002302F50050
:101260004146A6851305840197F0FE1FE78040FBE9
:101270009C481CD48147B2402244924402493E8596
:1012800041018280C9473E858280797122D406D689
:101290002A842EC6EF70A07101CDB2452285230E9F
:1012A000B1006C08EF70D07DB2502254456182804D
:1012B0005145DDBF6F705006C1671387E7FF639527
:1012C000E502B727002083A7C79691EB49458280A6
:1012D0004945B2402244924402494101828003A31D
:1012E0000700E30503FE0283411122C426C24AC05F
:1012F00006C6FD172A892E84B284639AF502B727A1
:10130000002083A7C79691CF9C4381CF829711E994
:10131000B727002023802799B7270020A38097981C
:101320004DBFA6854A85EFE0FFD345F5D5B72E859D
:10133000EF70E06751DD834705000D45E39B27F91A
:1013400022852244B2400249A685924441016FB0F1
:10135000B00E9307000463E2A7064111C16722C4DF
:1013600006C626C2FD172A8409456382F502C547D1
:10137000AE846313F4022E85EFB09013372500205E
:10138000130545B506042A94231094000145B24084
:1013900022449244410182809307A0036316F40023
:1013A0002E85EFB0300AD9BF9307B003E318F4FCE1
:1013B00013F5F50FEFB05009D1B7094582804111FF
:1013C00006C622C426C237240020AA84EFE0BFCB81
:1013D000EF10E01DEFA0515B130544B381451306E8
:1013E000000297F0FE1FE780C0EA130444B393079E
:1013F00000F02311F400B7270020138787C7FD569C
:101400002301D700230204002244238C97C6B24054
:1014100026859244954541016F5010675971939705
:101420000501A6D286D6A2D4CAD0CECED2CCD6CAF8
:10143000DAC8DEC6E2C4E6C2EAC06EDEC187AE84A8
:1014400063D3075237240020034584C7372900207F
:10145000372A0020EFC09F82AA8C22CCB72A002016
:10146000B72B0020130449B3372C002063930C02E0
:101470002165258DB650265496540659F649664A7C
:10148000D64A464BB64B264C964C064DF25D6561EE
:10149000828083C70C001307200A639CE7008349FE
:1014A000340003D52C00C1656686FD15EFF04F9022
:1014B0009DA26247130787C78349270013071009B6
:1014C0006398E71683C71C001547639FE70066858E
:1014D000EFF0CF926685EFC04FEEE24703C587C7B6
:1014E000EFC0CFF9AA8C59B73947639BE71603D5EC
:1014F0004C008567A5076316F50483A58C0003CB14
:101500000500631D0B00850591C93725002019468C
:101510001305C5B497F0FE1FE78080D0034749B399
:1015200085476317F71063080B00230A09B25A8531
:10153000EFF0CFC045B78947230AF9B2EFB0807208
:1015400051BF896713872700631CE50403AB8C0038
:1015500063000B0E83470B0089EF83472B00034783
:101560001B00A207D98F2314F40083473B00A3007C
:10157000F400034749B38947631CF70A83470B000C
:1015800091C7230A09B203450B005DB783451400D8
:10159000035584008D47230AF9B2EF50F051E5B7A7
:1015A00095076319F50083A78C0003C50700EFF0CA
:1015B0006FE20DB7F9771387A7FF2A974207418398
:1015C000914663F1E6049387A7FCAA97C207C183FB
:1015D00071476371F70289671387B7006310E504E9
:1015E00083A78A96E38807EE9C43E685E38407EEAB
:1015F000829715A0370700181307F770B357F70045
:10160000858BA9CB83270A97E38607EC9C43E3836A
:1016100007EC66858297E31F05EA19A81387C700C0
:101620006311E50283A78C0083C70700E38407EA00
:101630009307F00FE380F9EAE6854E85EFC00FECE3
:1016400069BDB9076318F5008327CC96E38407E8E2
:10165000DC4361BF896793871704E303F5F8C9BFCB
:101660003D476399E70403D54C0089671387D7008A
:10167000E30CE5FC13879701E308E5FCCD07E319CC
:10168000F5FA03576400C167FD17631DF700832750
:10169000CC96E38107E4DC43E38E07E20965E68547
:1016A0004D05B9B7B727002083A74797E38407E222
:1016B0009C43DDB71307E003E39CE7F683C72C00E8
:1016C00005476398E70E83C76C0037270020930D0A
:1016D0000796E1E783A70D00D5CF03CB0700A1490B
:1016E00003C57C00138D8C00EA85EFE07FDE83C7A5
:1016F0004C01A383AC0083D80C0103D8EC0003D7C2
:101700004C002A8603C53C003EC283D72C01EA86E2
:10171000DA853EC0CE87EFF00FBB83C73C0095E76C
:10172000DD4783D80C0103D8EC0083C67C0083D549
:101730004C003EC283D72C016A873EC0CE87054647
:101740005A85EF70A05FA381AC0083A70D0081C70D
:101750001145EFF05F9E138B0B9803450B00E30BD5
:1017600005D6B727002083C51798EFE0BF8FE303A6
:1017700005D683C63C0093071003638AF60003D6A0
:101780004C0083450B004E873685EFE0FFA6238093
:101790000B9889B3034B340099B783270A97034BFF
:1017A0003400914995DFDC4385DF8145014582970F
:1017B00005BF29476398E70A83C76C0037270020D5
:1017C000930D0796A5EF83A70D00B5C703CB0700C0
:1017D000A14903C57C0093868C0093772500BDCB7F
:1017E00013761500138E4C0183C70C0283D8CC01ED
:1017F00003D8AC0103D74C0003C53C003EC283D7DD
:10180000EC01DA8572CE3EC0CE87EFF0CFAB83C756
:101810003C00724E9DFBDD4783D8CC0103D8AC0160
:1018200083C67C0083D54C003EC283D7EC0172870F
:101830003EC0CE8729B7034B340059BF83270A9790
:10184000034B34009149D1D7DC43C1D781450145D1
:10185000829741B7B68536CEEFE09FC7F2462A861B
:10186000368E59B70947639CE70083A78A96E383BE
:1018700007C6DC43E38007C666858297A1B92D477A
:101880006398E70083A78A96E38607C49C47DDB781
:101890000D476397E70066868D4503D54C0039B147
:1018A00019476395E7069305610213051031EFA010
:1018B00051162C1013052031EFA0B11503D66C0082
:1018C0008357810203D54C0063E8C70083D68C00A0
:1018D0000357610263F7E60093050002EFB0403C56
:1018E000D5BE6374E6002393EC0063F4D700239421
:1018F000FC0003D7CC0083D6AC0003D68C0083D584
:101900006C0001488147EFB06039E9B61D47E381BB
:10191000E7D231476395E7006686B145BDBF3547DD
:101920006398E70083A78A96E38607BADC4799B7EE
:101930004947639DE70083270A97E38B07CEDC4383
:10194000E38807CE814505458297DDB14D47E39198
:10195000E7CE83270A97E38D07CCDC43E38A07CCE5
:10196000E6850945D5B793F7150089CFB72700203D
:1019700083A7879689C7DC4399C30145829713C51E
:101980001400CDBC93F7250091CFB727002083A783
:10199000079791C7DC4381C781450545829713C5E9
:1019A0002400C9BC93F745000145E38507ACB72780
:1019B000002083A7479637240020130444B391CF17
:1019C00085472302F400B727002083A7079791C714
:1019D000DC4381C781450545829748442C10EF7050
:1019E000707B2810EFF0EF99B727002083D767B7F7
:1019F00081CF130600643386C702B727002003C5D2
:101A000087C79145EFC01F8713C54400A5B4411196
:101A100022C4372400200325449606C619C597E042
:101A2000FE1FE780607023220496B24022444101E9
:101A300082805971A2D4372400208327449686D609
:101A4000A6D2CAD0CECED2CCD6CADAC80545638DCE
:101A5000070C9305F1041305F041EF80F14D930558
:101A6000F1041305F041EF80314DB7270020938733
:101A700047B383C727000347F104B337F00011C30E
:101A80008907032744963EDE034537009305470048
:101A9000EFE09F9F032744962ADC0D4583452700EE
:101AA0002EDAEFF06FB52AD81145EFF0EFB403242A
:101AB00044962AD665450347A400034BB4003AD4A4
:101AC000EFF08FB3AA846945EFF00FB32A8971450F
